{
  "contractName": "Alerter",
  "abi": [
    {
      "inputs": [
        {
          "internalType": "contract Queue",
          "name": "_queue",
          "type": "address"
        }
      ],
      "payable": false,
      "stateMutability": "nonpayable",
      "type": "constructor"
    },
    {
      "anonymous": false,
      "inputs": [
        {
          "indexed": false,
          "internalType": "string",
          "name": "desc",
          "type": "string"
        }
      ],
      "name": "AlertCreated",
      "type": "event"
    },
    {
      "constant": false,
      "inputs": [],
      "name": "cfrInitialResponse",
      "outputs": [
        {
          "internalType": "uint256",
          "name": "",
          "type": "uint256"
        }
      ],
      "payable": false,
      "stateMutability": "nonpayable",
      "type": "function"
    },
    {
      "constant": false,
      "inputs": [
        {
          "internalType": "string",
          "name": "title",
          "type": "string"
        },
        {
          "internalType": "string",
          "name": "description",
          "type": "string"
        },
        {
          "internalType": "string",
          "name": "recipient_Address",
          "type": "string"
        },
        {
          "internalType": "string",
          "name": "alertType",
          "type": "string"
        }
      ],
      "name": "createAlert",
      "outputs": [],
      "payable": false,
      "stateMutability": "nonpayable",
      "type": "function"
    }
  ],
  "bytecode": "0x60806040526000600155600060025534801561001a57600080fd5b50604051610b14380380610b14833981810160405261003c9190810190610097565b806000806101000a81548173ffffffffffffffffffffffffffffffffffffffff021916908373ffffffffffffffffffffffffffffffffffffffff1602179055505061011b565b60008151905061009181610104565b92915050565b6000602082840312156100a957600080fd5b60006100b784828501610082565b91505092915050565b60006100cb826100e4565b9050919050565b60006100dd826100c0565b9050919050565b600073ffffffffffffffffffffffffffffffffffffffff82169050919050565b61010d816100d2565b811461011857600080fd5b50565b6109ea8061012a6000396000f3fe608060405234801561001057600080fd5b50600436106100365760003560e01c8063156c33ed1461003b57806348ac10d514610059575b600080fd5b610043610075565b60405161005091906107e6565b60405180910390f35b610073600480360361006e9190810190610408565b610091565b005b6000600260008154809291906001019190505550600254905090565b6100a58484846100a0856100ab565b6101c8565b50505050565b60006040516020016100bc90610763565b60405160208183030381529060405280519060200120826040516020016100e3919061074c565b60405160208183030381529060405280519060200120141561010857600090506101c3565b6040516020016101179061078d565b604051602081830303815290604052805190602001208260405160200161013e919061074c565b60405160208183030381529060405280519060200120141561016357600290506101c3565b60405160200161017290610778565b6040516020818303038152906040528051906020012082604051602001610199919061074c565b6040516020818303038152906040528051906020012014156101be57600190506101c3565b600390505b919050565b6001600081548092919060010191905055506101e2610336565b6040518060e00160405280600154815260200186815260200185815260200184815260200183600381111561021357fe5b8152602001600073ffffffffffffffffffffffffffffffffffffffff1681526020016000600181111561024257fe5b81525090506000809054906101000a900473ffffffffffffffffffffffffffffffffffffffff1673ffffffffffffffffffffffffffffffffffffffff1663b406cce2826040518263ffffffff1660e01b81526004016102a191906107c4565b602060405180830381600087803b1580156102bb57600080fd5b505af11580156102cf573d6000803e3d6000fd5b505050506040513d601f19601f820116820180604052506102f391908101906104cb565b507fc33718af7bbce47bec37033c83a13e4cdd4358e5fd4e2c880e87e2825ea6068c816020015160405161032791906107a2565b60405180910390a15050505050565b6040518060e00160405280600081526020016060815260200160608152602001606081526020016000600381111561036a57fe5b8152602001600073ffffffffffffffffffffffffffffffffffffffff1681526020016000600181111561039957fe5b81525090565b600082601f8301126103b057600080fd5b81356103c36103be8261082e565b610801565b915080825260208301602083018583830111156103df57600080fd5b6103ea838284610923565b50505092915050565b60008151905061040281610990565b92915050565b6000806000806080858703121561041e57600080fd5b600085013567ffffffffffffffff81111561043857600080fd5b6104448782880161039f565b945050602085013567ffffffffffffffff81111561046157600080fd5b61046d8782880161039f565b935050604085013567ffffffffffffffff81111561048a57600080fd5b6104968782880161039f565b925050606085013567ffffffffffffffff8111156104b357600080fd5b6104bf8782880161039f565b91505092959194509250565b6000602082840312156104dd57600080fd5b60006104eb848285016103f3565b91505092915050565b6104fd8161089d565b82525050565b61050c816108ff565b82525050565b61051b81610911565b82525050565b600061052c82610865565b6105368185610892565b9350610546818560208601610932565b80840191505092915050565b600061055d8261085a565b6105678185610870565b9350610577818560208601610932565b61058081610965565b840191505092915050565b60006105968261085a565b6105a08185610881565b93506105b0818560208601610932565b6105b981610965565b840191505092915050565b60006105d1600483610892565b91507f46697265000000000000000000000000000000000000000000000000000000006000830152600482019050919050565b6000610611600583610892565b91507f54686566740000000000000000000000000000000000000000000000000000006000830152600582019050919050565b6000610651600683610892565b91507f4865616c746800000000000000000000000000000000000000000000000000006000830152600682019050919050565b600060e08301600083015161069c600086018261072e565b50602083015184820360208601526106b48282610552565b915050604083015184820360408601526106ce8282610552565b915050606083015184820360608601526106e88282610552565b91505060808301516106fd6080860182610512565b5060a083015161071060a08601826104f4565b5060c083015161072360c0860182610503565b508091505092915050565b610737816108f5565b82525050565b610746816108f5565b82525050565b60006107588284610521565b915081905092915050565b600061076e826105c4565b9150819050919050565b600061078382610604565b9150819050919050565b600061079882610644565b9150819050919050565b600060208201905081810360008301526107bc818461058b565b905092915050565b600060208201905081810360008301526107de8184610684565b905092915050565b60006020820190506107fb600083018461073d565b92915050565b6000604051905081810181811067ffffffffffffffff8211171561082457600080fd5b8060405250919050565b600067ffffffffffffffff82111561084557600080fd5b601f19601f8301169050602081019050919050565b600081519050919050565b600081519050919050565b600082825260208201905092915050565b600082825260208201905092915050565b600081905092915050565b60006108a8826108d5565b9050919050565b60008190506108bd82610976565b919050565b60008190506108d082610983565b919050565b600073ffffffffffffffffffffffffffffffffffffffff82169050919050565b6000819050919050565b600061090a826108af565b9050919050565b600061091c826108c2565b9050919050565b82818337600083830152505050565b60005b83811015610950578082015181840152602081019050610935565b8381111561095f576000848401525b50505050565b6000601f19601f8301169050919050565b6002811061098057fe5b50565b6004811061098d57fe5b50565b610999816108f5565b81146109a457600080fd5b5056fea365627a7a723158201dd436ae1e445dbc9587b66befdb8d1a932cd0ab2439a899a56a0be26b347db46c6578706572696d656e74616cf564736f6c63430005100040",
  "source": "// SPDX-License-Identifier: GPL-3.0\r\n// pragma solidity >=0.8.0 <=0.9.0;\r\npragma solidity >=0.5.16;\r\npragma experimental ABIEncoderV2;\r\n\r\n\r\nimport \"./Constants.sol\";\r\nimport \"./Queue.sol\";\r\n\r\ncontract Alerter{\r\n// To access enqueue of the queue. The constructor might need address to be passed. Verify it.\r\n    Queue queue;\r\n    constructor(Queue _queue) public{\r\n        queue = _queue;\r\n    }\r\n\r\n    // Count of currently open alerts.\r\n    uint alert_Count = 0;\r\n\r\n    // Count of Community first responders initial responded alerts. This is just incremented. Has no real meaning, just done to perform interaction b/w CFR and Alerter.\r\n    uint cfrResponded_Alerts_Count = 0;\r\n\r\n    // Event is raised when a new alert is created\r\n    event AlertCreated(string desc);\r\n\r\n    // // function to retrieve all the open alerts\r\n    // function getAlerts() public view returns(Alert[] memory){\r\n    //     return alerts;\r\n    // }\r\n\r\n\r\n    // Increments the count of the initial responses from CFR\r\n    function cfrInitialResponse() public returns(uint){\r\n        cfrResponded_Alerts_Count++;\r\n        return cfrResponded_Alerts_Count;\r\n    }\r\n\r\n    // Returns the alert type constant using the user entered string\r\n    function get_AlertType_from_string(string memory alertType) private pure returns(Constants.Alert_Type){\r\n    if( keccak256(abi.encodePacked((alertType))) == keccak256(abi.encodePacked((\"Fire\"))) )\r\n        return Constants.Alert_Type.Fire_Alert;\r\n    else if( keccak256(abi.encodePacked((alertType))) == keccak256(abi.encodePacked((\"Health\"))) )\r\n        return Constants.Alert_Type.Health_Emergency_Alert;\r\n    else if( keccak256(abi.encodePacked((alertType))) == keccak256(abi.encodePacked((\"Theft\"))) )\r\n        return Constants.Alert_Type.Theft_Alert;                \r\n    else \r\n        return Constants.Alert_Type.Invalid_Alert;\r\n    }\r\n\r\n\r\n    function setAlert(string memory title, string memory description, string memory recipient_Address, Constants.Alert_Type alertType) private{\r\n        alert_Count++;\r\n        Constants.Alert memory alert = Constants.Alert({\r\n            alertId : alert_Count,\r\n            title : title,\r\n            description : description,\r\n            recipient_Address : recipient_Address,\r\n            type_Of_Alert : alertType,\r\n            responder_Address : address(0),\r\n            status : Constants.Alert_Status.Open\r\n        });\r\n        queue.enqueue(alert);\r\n        emit AlertCreated(alert.title);\r\n    }\r\n\r\n    // Create a new Alert using this method\r\n    function createAlert(string memory title, string memory description, string memory recipient_Address, string memory alertType) public {\r\n        setAlert(title, description, recipient_Address, get_AlertType_from_string(alertType));\r\n    }\r\n}",
  "sourcePath": "C:\\Users\\varunbailapudi\\Documents\\Spring 2024\\Project Implementation\\AlertManagement\\contracts\\Alerter.sol",
  "compiler": {
    "name": "solc",
    "version": "0.5.16+commit.9c3226ce.Emscripten.clang"
  },
  "schemaVersion": "3.4.16",
  "updatedAt": "2024-05-15T04:51:28.825Z",
  "networkType": "ethereum",
  "devdoc": {
    "methods": {}
  },
  "userdoc": {
    "methods": {}
  }
}