{
  "contractName": "Alerter",
  "abi": [
    {
      "inputs": [
        {
          "internalType": "contract Queue",
          "name": "_queue",
          "type": "address"
        }
      ],
      "stateMutability": "nonpayable",
      "type": "constructor"
    },
    {
      "anonymous": false,
      "inputs": [
        {
          "indexed": false,
          "internalType": "string",
          "name": "desc",
          "type": "string"
        }
      ],
      "name": "AlertCreated",
      "type": "event"
    },
    {
      "inputs": [
        {
          "internalType": "string",
          "name": "title",
          "type": "string"
        },
        {
          "internalType": "string",
          "name": "description",
          "type": "string"
        },
        {
          "internalType": "string",
          "name": "recipient_Address",
          "type": "string"
        },
        {
          "internalType": "string",
          "name": "alertType",
          "type": "string"
        }
      ],
      "name": "createAlert",
      "outputs": [],
      "stateMutability": "nonpayable",
      "type": "function"
    }
  ],
  "bytecode": "0x60806040525f600155348015610013575f80fd5b50604051610b43380380610b43833981810160405281019061003591906100e9565b805f806101000a81548173ffffffffffffffffffffffffffffffffffffffff021916908373ffffffffffffffffffffffffffffffffffffffff16021790555050610114565b5f80fd5b5f73ffffffffffffffffffffffffffffffffffffffff82169050919050565b5f6100a78261007e565b9050919050565b5f6100b88261009d565b9050919050565b6100c8816100ae565b81146100d2575f80fd5b50565b5f815190506100e3816100bf565b92915050565b5f602082840312156100fe576100fd61007a565b5b5f61010b848285016100d5565b91505092915050565b610a22806101215f395ff3fe608060405234801561000f575f80fd5b5060043610610029575f3560e01c806348ac10d51461002d575b5f80fd5b6100476004803603810190610042919061042c565b610049565b005b61005d84848461005885610063565b61017b565b50505050565b5f60405160200161007390610554565b604051602081830303815290604052805190602001208260405160200161009a91906105ca565b60405160208183030381529060405280519060200120036100bd575f9050610176565b6040516020016100cc9061062a565b60405160208183030381529060405280519060200120826040516020016100f391906105ca565b60405160208183030381529060405280519060200120036101175760029050610176565b60405160200161012690610688565b604051602081830303815290604052805190602001208260405160200161014d91906105ca565b60405160208183030381529060405280519060200120036101715760019050610176565b600390505b919050565b60015f81548092919061018d906106d2565b91905055505f6040518060e0016040528060015481526020018681526020018581526020018481526020018360038111156101cb576101ca610719565b5b81526020015f73ffffffffffffffffffffffffffffffffffffffff1681526020015f60018111156101ff576101fe610719565b5b81525090505f8054906101000a900473ffffffffffffffffffffffffffffffffffffffff1673ffffffffffffffffffffffffffffffffffffffff1663b406cce2826040518263ffffffff1660e01b815260040161025c919061090f565b6020604051808303815f875af1158015610278573d5f803e3d5ffd5b505050506040513d601f19601f8201168201806040525081019061029c9190610959565b507fc33718af7bbce47bec37033c83a13e4cdd4358e5fd4e2c880e87e2825ea6068c81602001516040516102d091906109cc565b60405180910390a15050505050565b5f604051905090565b5f80fd5b5f80fd5b5f80fd5b5f80fd5b5f601f19601f8301169050919050565b7f4e487b71000000000000000000000000000000000000000000000000000000005f52604160045260245ffd5b61033e826102f8565b810181811067ffffffffffffffff8211171561035d5761035c610308565b5b80604052505050565b5f61036f6102df565b905061037b8282610335565b919050565b5f67ffffffffffffffff82111561039a57610399610308565b5b6103a3826102f8565b9050602081019050919050565b828183375f83830152505050565b5f6103d06103cb84610380565b610366565b9050828152602081018484840111156103ec576103eb6102f4565b5b6103f78482856103b0565b509392505050565b5f82601f830112610413576104126102f0565b5b81356104238482602086016103be565b91505092915050565b5f805f8060808587031215610444576104436102e8565b5b5f85013567ffffffffffffffff811115610461576104606102ec565b5b61046d878288016103ff565b945050602085013567ffffffffffffffff81111561048e5761048d6102ec565b5b61049a878288016103ff565b935050604085013567ffffffffffffffff8111156104bb576104ba6102ec565b5b6104c7878288016103ff565b925050606085013567ffffffffffffffff8111156104e8576104e76102ec565b5b6104f4878288016103ff565b91505092959194509250565b5f81905092915050565b7f46697265000000000000000000000000000000000000000000000000000000005f82015250565b5f61053e600483610500565b91506105498261050a565b600482019050919050565b5f61055e82610532565b9150819050919050565b5f81519050919050565b5f5b8381101561058f578082015181840152602081019050610574565b5f8484015250505050565b5f6105a482610568565b6105ae8185610500565b93506105be818560208601610572565b80840191505092915050565b5f6105d5828461059a565b915081905092915050565b7f4865616c746800000000000000000000000000000000000000000000000000005f82015250565b5f610614600683610500565b915061061f826105e0565b600682019050919050565b5f61063482610608565b9150819050919050565b7f54686566740000000000000000000000000000000000000000000000000000005f82015250565b5f610672600583610500565b915061067d8261063e565b600582019050919050565b5f61069282610666565b9150819050919050565b7f4e487b71000000000000000000000000000000000000000000000000000000005f52601160045260245ffd5b5f819050919050565b5f6106dc826106c9565b91507fffffffffffffffffffffffffffffffffffffffffffffffffffffffffffffffff820361070e5761070d61069c565b5b600182019050919050565b7f4e487b71000000000000000000000000000000000000000000000000000000005f52602160045260245ffd5b61074f816106c9565b82525050565b5f82825260208201905092915050565b5f61076f82610568565b6107798185610755565b9350610789818560208601610572565b610792816102f8565b840191505092915050565b600481106107ae576107ad610719565b5b50565b5f8190506107be8261079d565b919050565b5f6107cd826107b1565b9050919050565b6107dd816107c3565b82525050565b5f73ffffffffffffffffffffffffffffffffffffffff82169050919050565b5f61080c826107e3565b9050919050565b61081c81610802565b82525050565b6002811061083357610832610719565b5b50565b5f81905061084382610822565b919050565b5f61085282610836565b9050919050565b61086281610848565b82525050565b5f60e083015f83015161087d5f860182610746565b50602083015184820360208601526108958282610765565b915050604083015184820360408601526108af8282610765565b915050606083015184820360608601526108c98282610765565b91505060808301516108de60808601826107d4565b5060a08301516108f160a0860182610813565b5060c083015161090460c0860182610859565b508091505092915050565b5f6020820190508181035f8301526109278184610868565b905092915050565b610938816106c9565b8114610942575f80fd5b50565b5f815190506109538161092f565b92915050565b5f6020828403121561096e5761096d6102e8565b5b5f61097b84828501610945565b91505092915050565b5f82825260208201905092915050565b5f61099e82610568565b6109a88185610984565b93506109b8818560208601610572565b6109c1816102f8565b840191505092915050565b5f6020820190508181035f8301526109e48184610994565b90509291505056fea264697066735822122047f4e09d4992bfdce0e1f41909ef1e8d1b9b1efb9366e828c39f6e4b6f3dd37c64736f6c63430008150033",
  "immutableReferences": {},
  "source": "// SPDX-License-Identifier: GPL-3.0\r\n// pragma solidity >=0.8.0 <=0.9.0;\r\npragma solidity >=0.5.16;\r\n\r\nimport \"./Constants.sol\";\r\nimport \"./Queue.sol\";\r\n\r\ncontract Alerter{\r\n// To access enqueue of the queue\r\n    Queue queue;\r\n    constructor(Queue _queue){\r\n        queue = _queue;\r\n    }\r\n\r\n    // Count of currently open alerts\r\n    uint alert_Count = 0;\r\n\r\n    // Event is raised when a new alert is created\r\n    event AlertCreated(string desc);\r\n\r\n    // // function to retrieve all the open alerts\r\n    // function getAlerts() public view returns(Alert[] memory){\r\n    //     return alerts;\r\n    // }\r\n\r\n    // Returns the alert type constant using the user entered string\r\n    function get_AlertType_from_string(string memory alertType) private pure returns(Alert_Type){\r\n    if( keccak256(abi.encodePacked((alertType))) == keccak256(abi.encodePacked((\"Fire\"))) )\r\n        return Alert_Type.Fire_Alert;\r\n    else if( keccak256(abi.encodePacked((alertType))) == keccak256(abi.encodePacked((\"Health\"))) )\r\n        return Alert_Type.Health_Emergency_Alert;\r\n    else if( keccak256(abi.encodePacked((alertType))) == keccak256(abi.encodePacked((\"Theft\"))) )\r\n        return Alert_Type.Theft_Alert;                \r\n    else \r\n        return Alert_Type.Invalid_Alert;\r\n    }\r\n\r\n\r\n    function setAlert(string memory title, string memory description, string memory recipient_Address, Alert_Type alertType) private{\r\n        alert_Count++;\r\n        Alert memory alert = Alert({\r\n            alertId : alert_Count,\r\n            title : title,\r\n            description : description,\r\n            recipient_Address : recipient_Address,\r\n            type_Of_Alert : alertType,\r\n            responder_Address : address(0),\r\n            status : Alert_Status.Open\r\n        });\r\n        queue.enqueue(alert);\r\n        emit AlertCreated(alert.title);\r\n    }\r\n\r\n    // Create a new Alert using this method\r\n    function createAlert(string memory title, string memory description, string memory recipient_Address, string memory alertType) public {\r\n        setAlert(title, description, recipient_Address, get_AlertType_from_string(alertType));\r\n    }\r\n\r\n\r\n    // // Invoked by responder to close the Alert, marks the alert with the alertId as Closed.\r\n    // function close_Alert_By_Responder(uint alertId) public{\r\n    //     alerts[alertId].status = Alert_Status.Closed;\r\n    // }\r\n}",
  "sourcePath": "C:\\Users\\varunbailapudi\\Documents\\Spring 2024\\Project Implementation\\AlertManagement\\contracts\\Alerter.sol",
  "compiler": {
    "name": "solc",
    "version": "0.8.21+commit.d9974bed.Emscripten.clang"
  },
  "schemaVersion": "3.4.16",
  "updatedAt": "2024-05-05T23:31:20.529Z",
  "devdoc": {
    "kind": "dev",
    "methods": {},
    "version": 1
  },
  "userdoc": {
    "kind": "user",
    "methods": {},
    "version": 1
  }
}