{
  "contractName": "AlertManagement",
  "abi": [
    {
      "anonymous": false,
      "inputs": [
        {
          "indexed": false,
          "internalType": "string",
          "name": "desc",
          "type": "string"
        }
      ],
      "name": "AlertCreated",
      "type": "event"
    },
    {
      "inputs": [
        {
          "internalType": "uint256",
          "name": "",
          "type": "uint256"
        }
      ],
      "name": "alerts",
      "outputs": [
        {
          "internalType": "int256",
          "name": "alertId",
          "type": "int256"
        },
        {
          "internalType": "string",
          "name": "title",
          "type": "string"
        },
        {
          "internalType": "string",
          "name": "description",
          "type": "string"
        },
        {
          "internalType": "string",
          "name": "recipient_Address",
          "type": "string"
        },
        {
          "internalType": "enum AlertManagement.Alert_Type",
          "name": "type_Of_Alert",
          "type": "uint8"
        },
        {
          "internalType": "address",
          "name": "responder_Address",
          "type": "address"
        },
        {
          "internalType": "enum AlertManagement.Alert_Status",
          "name": "status",
          "type": "uint8"
        }
      ],
      "stateMutability": "view",
      "type": "function"
    },
    {
      "inputs": [],
      "name": "getAlerts",
      "outputs": [
        {
          "components": [
            {
              "internalType": "int256",
              "name": "alertId",
              "type": "int256"
            },
            {
              "internalType": "string",
              "name": "title",
              "type": "string"
            },
            {
              "internalType": "string",
              "name": "description",
              "type": "string"
            },
            {
              "internalType": "string",
              "name": "recipient_Address",
              "type": "string"
            },
            {
              "internalType": "enum AlertManagement.Alert_Type",
              "name": "type_Of_Alert",
              "type": "uint8"
            },
            {
              "internalType": "address",
              "name": "responder_Address",
              "type": "address"
            },
            {
              "internalType": "enum AlertManagement.Alert_Status",
              "name": "status",
              "type": "uint8"
            }
          ],
          "internalType": "struct AlertManagement.Alert[]",
          "name": "",
          "type": "tuple[]"
        }
      ],
      "stateMutability": "view",
      "type": "function"
    },
    {
      "inputs": [
        {
          "internalType": "string",
          "name": "title",
          "type": "string"
        },
        {
          "internalType": "string",
          "name": "description",
          "type": "string"
        },
        {
          "internalType": "string",
          "name": "recipient_Address",
          "type": "string"
        },
        {
          "internalType": "string",
          "name": "alertType",
          "type": "string"
        }
      ],
      "name": "createAlert",
      "outputs": [],
      "stateMutability": "nonpayable",
      "type": "function"
    }
  ],
  "bytecode": "0x60806040525f8055348015610012575f80fd5b5061144b806100205f395ff3fe608060405234801561000f575f80fd5b506004361061003f575f3560e01c8063171d073a1461004357806348ac10d514610079578063ff63ca3414610095575b5f80fd5b61005d60048036038101906100589190610901565b6100b3565b6040516100709796959493929190610ac6565b60405180910390f35b610093600480360381019061008e9190610c74565b6102cb565b005b61009d6102e5565b6040516100aa9190610f2e565b60405180910390f35b600181815481106100c2575f80fd5b905f5260205f2090600502015f91509050805f0154908060010180546100e790610f7b565b80601f016020809104026020016040519081016040528092919081815260200182805461011390610f7b565b801561015e5780601f106101355761010080835404028352916020019161015e565b820191905f5260205f20905b81548152906001019060200180831161014157829003601f168201915b50505050509080600201805461017390610f7b565b80601f016020809104026020016040519081016040528092919081815260200182805461019f90610f7b565b80156101ea5780601f106101c1576101008083540402835291602001916101ea565b820191905f5260205f20905b8154815290600101906020018083116101cd57829003601f168201915b5050505050908060030180546101ff90610f7b565b80601f016020809104026020016040519081016040528092919081815260200182805461022b90610f7b565b80156102765780601f1061024d57610100808354040283529160200191610276565b820191905f5260205f20905b81548152906001019060200180831161025957829003601f168201915b505050505090806004015f9054906101000a900460ff16908060040160019054906101000a900473ffffffffffffffffffffffffffffffffffffffff16908060040160159054906101000a900460ff16905087565b6102df8484846102da856105c5565b6106d9565b50505050565b60606001805480602002602001604051908101604052809291908181526020015f905b828210156105bc578382905f5260205f2090600502016040518060e00160405290815f820154815260200160018201805461034290610f7b565b80601f016020809104026020016040519081016040528092919081815260200182805461036e90610f7b565b80156103b95780601f10610390576101008083540402835291602001916103b9565b820191905f5260205f20905b81548152906001019060200180831161039c57829003601f168201915b505050505081526020016002820180546103d290610f7b565b80601f01602080910402602001604051908101604052809291908181526020018280546103fe90610f7b565b80156104495780601f1061042057610100808354040283529160200191610449565b820191905f5260205f20905b81548152906001019060200180831161042c57829003601f168201915b5050505050815260200160038201805461046290610f7b565b80601f016020809104026020016040519081016040528092919081815260200182805461048e90610f7b565b80156104d95780601f106104b0576101008083540402835291602001916104d9565b820191905f5260205f20905b8154815290600101906020018083116104bc57829003601f168201915b50505050508152602001600482015f9054906101000a900460ff166002811115610506576105056109ce565b5b6002811115610518576105176109ce565b5b81526020016004820160019054906101000a900473ffffffffffffffffffffffffffffffffffffffff1673ffffffffffffffffffffffffffffffffffffffff1673ffffffffffffffffffffffffffffffffffffffff1681526020016004820160159054906101000a900460ff166001811115610597576105966109ce565b5b60018111156105a9576105a86109ce565b5b8152505081526020019060010190610308565b50505050905090565b5f6040516020016105d590610fff565b60405160208183030381529060405280519060200120826040516020016105fc9190611043565b604051602081830303815290604052805190602001200361061f575f90506106d4565b60405160200161062e906110a3565b60405160208183030381529060405280519060200120826040516020016106559190611043565b604051602081830303815290604052805190602001200361067957600290506106d4565b60405160200161068890611101565b60405160208183030381529060405280519060200120826040516020016106af9190611043565b60405160208183030381529060405280519060200120036106d357600190506106d4565b5b919050565b5f808154809291906106ea90611142565b91905055505f6040518060e001604052805f548152602001868152602001858152602001848152602001836002811115610727576107266109ce565b5b81526020015f73ffffffffffffffffffffffffffffffffffffffff1681526020015f600181111561075b5761075a6109ce565b5b8152509050600181908060018154018082558091505060019003905f5260205f2090600502015f909190919091505f820151815f015560208201518160010190816107a69190611326565b5060408201518160020190816107bc9190611326565b5060608201518160030190816107d29190611326565b506080820151816004015f6101000a81548160ff021916908360028111156107fd576107fc6109ce565b5b021790555060a08201518160040160016101000a81548173ffffffffffffffffffffffffffffffffffffffff021916908373ffffffffffffffffffffffffffffffffffffffff16021790555060c08201518160040160156101000a81548160ff02191690836001811115610874576108736109ce565b5b021790555050507fc33718af7bbce47bec37033c83a13e4cdd4358e5fd4e2c880e87e2825ea6068c81602001516040516108ae91906113f5565b60405180910390a15050505050565b5f604051905090565b5f80fd5b5f80fd5b5f819050919050565b6108e0816108ce565b81146108ea575f80fd5b50565b5f813590506108fb816108d7565b92915050565b5f60208284031215610916576109156108c6565b5b5f610923848285016108ed565b91505092915050565b5f819050919050565b61093e8161092c565b82525050565b5f81519050919050565b5f82825260208201905092915050565b5f5b8381101561097b578082015181840152602081019050610960565b5f8484015250505050565b5f601f19601f8301169050919050565b5f6109a082610944565b6109aa818561094e565b93506109ba81856020860161095e565b6109c381610986565b840191505092915050565b7f4e487b71000000000000000000000000000000000000000000000000000000005f52602160045260245ffd5b60038110610a0c57610a0b6109ce565b5b50565b5f819050610a1c826109fb565b919050565b5f610a2b82610a0f565b9050919050565b610a3b81610a21565b82525050565b5f73ffffffffffffffffffffffffffffffffffffffff82169050919050565b5f610a6a82610a41565b9050919050565b610a7a81610a60565b82525050565b60028110610a9157610a906109ce565b5b50565b5f819050610aa182610a80565b919050565b5f610ab082610a94565b9050919050565b610ac081610aa6565b82525050565b5f60e082019050610ad95f83018a610935565b8181036020830152610aeb8189610996565b90508181036040830152610aff8188610996565b90508181036060830152610b138187610996565b9050610b226080830186610a32565b610b2f60a0830185610a71565b610b3c60c0830184610ab7565b98975050505050505050565b5f80fd5b5f80fd5b7f4e487b71000000000000000000000000000000000000000000000000000000005f52604160045260245ffd5b610b8682610986565b810181811067ffffffffffffffff82111715610ba557610ba4610b50565b5b80604052505050565b5f610bb76108bd565b9050610bc38282610b7d565b919050565b5f67ffffffffffffffff821115610be257610be1610b50565b5b610beb82610986565b9050602081019050919050565b828183375f83830152505050565b5f610c18610c1384610bc8565b610bae565b905082815260208101848484011115610c3457610c33610b4c565b5b610c3f848285610bf8565b509392505050565b5f82601f830112610c5b57610c5a610b48565b5b8135610c6b848260208601610c06565b91505092915050565b5f805f8060808587031215610c8c57610c8b6108c6565b5b5f85013567ffffffffffffffff811115610ca957610ca86108ca565b5b610cb587828801610c47565b945050602085013567ffffffffffffffff811115610cd657610cd56108ca565b5b610ce287828801610c47565b935050604085013567ffffffffffffffff811115610d0357610d026108ca565b5b610d0f87828801610c47565b925050606085013567ffffffffffffffff811115610d3057610d2f6108ca565b5b610d3c87828801610c47565b91505092959194509250565b5f81519050919050565b5f82825260208201905092915050565b5f819050602082019050919050565b610d7a8161092c565b82525050565b5f82825260208201905092915050565b5f610d9a82610944565b610da48185610d80565b9350610db481856020860161095e565b610dbd81610986565b840191505092915050565b610dd181610a21565b82525050565b610de081610a60565b82525050565b610def81610aa6565b82525050565b5f60e083015f830151610e0a5f860182610d71565b5060208301518482036020860152610e228282610d90565b91505060408301518482036040860152610e3c8282610d90565b91505060608301518482036060860152610e568282610d90565b9150506080830151610e6b6080860182610dc8565b5060a0830151610e7e60a0860182610dd7565b5060c0830151610e9160c0860182610de6565b508091505092915050565b5f610ea78383610df5565b905092915050565b5f602082019050919050565b5f610ec582610d48565b610ecf8185610d52565b935083602082028501610ee185610d62565b805f5b85811015610f1c5784840389528151610efd8582610e9c565b9450610f0883610eaf565b925060208a01995050600181019050610ee4565b50829750879550505050505092915050565b5f6020820190508181035f830152610f468184610ebb565b905092915050565b7f4e487b71000000000000000000000000000000000000000000000000000000005f52602260045260245ffd5b5f6002820490506001821680610f9257607f821691505b602082108103610fa557610fa4610f4e565b5b50919050565b5f81905092915050565b7f46697265000000000000000000000000000000000000000000000000000000005f82015250565b5f610fe9600483610fab565b9150610ff482610fb5565b600482019050919050565b5f61100982610fdd565b9150819050919050565b5f61101d82610944565b6110278185610fab565b935061103781856020860161095e565b80840191505092915050565b5f61104e8284611013565b915081905092915050565b7f4865616c746800000000000000000000000000000000000000000000000000005f82015250565b5f61108d600683610fab565b915061109882611059565b600682019050919050565b5f6110ad82611081565b9150819050919050565b7f54686566740000000000000000000000000000000000000000000000000000005f82015250565b5f6110eb600583610fab565b91506110f6826110b7565b600582019050919050565b5f61110b826110df565b9150819050919050565b7f4e487b71000000000000000000000000000000000000000000000000000000005f52601160045260245ffd5b5f61114c8261092c565b91507f7fffffffffffffffffffffffffffffffffffffffffffffffffffffffffffffff820361117e5761117d611115565b5b600182019050919050565b5f819050815f5260205f209050919050565b5f6020601f8301049050919050565b5f82821b905092915050565b5f600883026111e57fffffffffffffffffffffffffffffffffffffffffffffffffffffffffffffffff826111aa565b6111ef86836111aa565b95508019841693508086168417925050509392505050565b5f819050919050565b5f61122a611225611220846108ce565b611207565b6108ce565b9050919050565b5f819050919050565b61124383611210565b61125761124f82611231565b8484546111b6565b825550505050565b5f90565b61126b61125f565b61127681848461123a565b505050565b5b818110156112995761128e5f82611263565b60018101905061127c565b5050565b601f8211156112de576112af81611189565b6112b88461119b565b810160208510156112c7578190505b6112db6112d38561119b565b83018261127b565b50505b505050565b5f82821c905092915050565b5f6112fe5f19846008026112e3565b1980831691505092915050565b5f61131683836112ef565b9150826002028217905092915050565b61132f82610944565b67ffffffffffffffff81111561134857611347610b50565b5b6113528254610f7b565b61135d82828561129d565b5f60209050601f83116001811461138e575f841561137c578287015190505b611386858261130b565b8655506113ed565b601f19841661139c86611189565b5f5b828110156113c35784890151825560018201915060208501945060208101905061139e565b868310156113e057848901516113dc601f8916826112ef565b8355505b6001600288020188555050505b505050505050565b5f6020820190508181035f83015261140d8184610996565b90509291505056fea2646970667358221220924f30a08b1c76a9eb8a75d4a0d6da80f29f1a4c6e81b7368c1a95a957a4e9ae64736f6c63430008150033",
  "immutableReferences": {},
  "source": "// SPDX-License-Identifier: GPL-3.0\r\n// pragma solidity >=0.8.0 <=0.9.0;\r\npragma solidity >=0.5.16;\r\n\r\ncontract AlertManagement{\r\n\r\n    // Count of currently open alerts\r\n    int alert_Count = 0;\r\n\r\n    // Array to store alerts\r\n    Alert[] public alerts;\r\n\r\n    // Event is raised when a new alert is created\r\n    event AlertCreated(string desc);\r\n\r\n    enum Alert_Status{\r\n        Open, \r\n        Closed\r\n    }\r\n    \r\n    enum Alert_Type{\r\n        Fire_Alert,\r\n        Theft_Alert,\r\n        Health_Emergency_Alert\r\n    }\r\n\r\n    struct Alert{\r\n        int alertId;\r\n        string title;\r\n        string description;\r\n        string recipient_Address;\r\n        Alert_Type type_Of_Alert;\r\n        address responder_Address;\r\n        Alert_Status status;\r\n    }\r\n\r\n    // function to retrieve all the open alerts\r\n    function getAlerts() public view returns(Alert[] memory){\r\n        return alerts;\r\n    }\r\n\r\n    // Returns the alert type constant using the user entered string\r\n    function get_AlertType_from_string(string memory alertType) private pure returns(Alert_Type){\r\n    if( keccak256(abi.encodePacked((alertType))) == keccak256(abi.encodePacked((\"Fire\"))) )\r\n        return Alert_Type.Fire_Alert;\r\n    else if( keccak256(abi.encodePacked((alertType))) == keccak256(abi.encodePacked((\"Health\"))) )\r\n        return Alert_Type.Health_Emergency_Alert;\r\n    if( keccak256(abi.encodePacked((alertType))) == keccak256(abi.encodePacked((\"Theft\"))) )\r\n        return Alert_Type.Theft_Alert;                \r\n    }\r\n\r\n\r\n    function setAlert(string memory title, string memory description, string memory recipient_Address, Alert_Type alertType) private{\r\n        alert_Count++;\r\n        Alert memory alert = Alert({\r\n            alertId : alert_Count,\r\n            title : title,\r\n            description : description,\r\n            recipient_Address : recipient_Address,\r\n            type_Of_Alert : alertType,\r\n            responder_Address : address(0),\r\n            status : Alert_Status.Open\r\n        });\r\n        alerts.push(alert);\r\n        emit AlertCreated(alert.title);\r\n    }\r\n\r\n    // Create a new Alert using this method\r\n    function createAlert(string memory title, string memory description, string memory recipient_Address, string memory alertType) public {\r\n        setAlert(title, description, recipient_Address, get_AlertType_from_string(alertType));\r\n    }\r\n\r\n}",
  "sourcePath": "C:\\Users\\varunbailapudi\\Documents\\Spring 2024\\Project Implementation\\AlertManagement\\contracts\\AlertManagement.sol",
  "compiler": {
    "name": "solc",
    "version": "0.8.21+commit.d9974bed.Emscripten.clang"
  },
  "schemaVersion": "3.4.16",
  "updatedAt": "2024-05-05T07:32:33.184Z",
  "devdoc": {
    "kind": "dev",
    "methods": {},
    "version": 1
  },
  "userdoc": {
    "kind": "user",
    "methods": {},
    "version": 1
  }
}