{
  "contractName": "Alerter",
  "abi": [
    {
      "inputs": [
        {
          "internalType": "contract Queue",
          "name": "_queue",
          "type": "address"
        }
      ],
      "payable": false,
      "stateMutability": "nonpayable",
      "type": "constructor"
    },
    {
      "anonymous": false,
      "inputs": [
        {
          "indexed": false,
          "internalType": "string",
          "name": "desc",
          "type": "string"
        }
      ],
      "name": "AlertCreated",
      "type": "event"
    },
    {
      "constant": false,
      "inputs": [
        {
          "internalType": "string",
          "name": "title",
          "type": "string"
        },
        {
          "internalType": "string",
          "name": "description",
          "type": "string"
        },
        {
          "internalType": "string",
          "name": "recipient_Address",
          "type": "string"
        },
        {
          "internalType": "string",
          "name": "alertType",
          "type": "string"
        }
      ],
      "name": "createAlert",
      "outputs": [],
      "payable": false,
      "stateMutability": "nonpayable",
      "type": "function"
    }
  ],
  "bytecode": "0x6080604052600060015534801561001557600080fd5b50604051610aa0380380610aa083398181016040526100379190810190610092565b806000806101000a81548173ffffffffffffffffffffffffffffffffffffffff021916908373ffffffffffffffffffffffffffffffffffffffff16021790555050610116565b60008151905061008c816100ff565b92915050565b6000602082840312156100a457600080fd5b60006100b28482850161007d565b91505092915050565b60006100c6826100df565b9050919050565b60006100d8826100bb565b9050919050565b600073ffffffffffffffffffffffffffffffffffffffff82169050919050565b610108816100cd565b811461011357600080fd5b50565b61097b806101256000396000f3fe608060405234801561001057600080fd5b506004361061002b5760003560e01c806348ac10d514610030575b600080fd5b61004a600480360361004591908101906103c3565b61004c565b005b61006084848461005b85610066565b610183565b50505050565b60006040516020016100779061070f565b604051602081830303815290604052805190602001208260405160200161009e91906106f8565b6040516020818303038152906040528051906020012014156100c3576000905061017e565b6040516020016100d290610739565b60405160208183030381529060405280519060200120826040516020016100f991906106f8565b60405160208183030381529060405280519060200120141561011e576002905061017e565b60405160200161012d90610724565b604051602081830303815290604052805190602001208260405160200161015491906106f8565b604051602081830303815290604052805190602001201415610179576001905061017e565b600390505b919050565b60016000815480929190600101919050555061019d6102f1565b6040518060e0016040528060015481526020018681526020018581526020018481526020018360038111156101ce57fe5b8152602001600073ffffffffffffffffffffffffffffffffffffffff168152602001600060018111156101fd57fe5b81525090506000809054906101000a900473ffffffffffffffffffffffffffffffffffffffff1673ffffffffffffffffffffffffffffffffffffffff1663b406cce2826040518263ffffffff1660e01b815260040161025c9190610770565b602060405180830381600087803b15801561027657600080fd5b505af115801561028a573d6000803e3d6000fd5b505050506040513d601f19601f820116820180604052506102ae9190810190610486565b507fc33718af7bbce47bec37033c83a13e4cdd4358e5fd4e2c880e87e2825ea6068c81602001516040516102e2919061074e565b60405180910390a15050505050565b6040518060e00160405280600081526020016060815260200160608152602001606081526020016000600381111561032557fe5b8152602001600073ffffffffffffffffffffffffffffffffffffffff1681526020016000600181111561035457fe5b81525090565b600082601f83011261036b57600080fd5b813561037e610379826107bf565b610792565b9150808252602083016020830185838301111561039a57600080fd5b6103a58382846108b4565b50505092915050565b6000815190506103bd81610921565b92915050565b600080600080608085870312156103d957600080fd5b600085013567ffffffffffffffff8111156103f357600080fd5b6103ff8782880161035a565b945050602085013567ffffffffffffffff81111561041c57600080fd5b6104288782880161035a565b935050604085013567ffffffffffffffff81111561044557600080fd5b6104518782880161035a565b925050606085013567ffffffffffffffff81111561046e57600080fd5b61047a8782880161035a565b91505092959194509250565b60006020828403121561049857600080fd5b60006104a6848285016103ae565b91505092915050565b6104b88161082e565b82525050565b6104c781610890565b82525050565b6104d6816108a2565b82525050565b60006104e7826107f6565b6104f18185610823565b93506105018185602086016108c3565b80840191505092915050565b6000610518826107eb565b6105228185610801565b93506105328185602086016108c3565b61053b816108f6565b840191505092915050565b6000610551826107eb565b61055b8185610812565b935061056b8185602086016108c3565b610574816108f6565b840191505092915050565b600061058c600483610823565b91507f46697265000000000000000000000000000000000000000000000000000000006000830152600482019050919050565b60006105cc600583610823565b91507f54686566740000000000000000000000000000000000000000000000000000006000830152600582019050919050565b600061060c600683610823565b91507f4865616c746800000000000000000000000000000000000000000000000000006000830152600682019050919050565b600060e08301600083015161065760008601826106e9565b506020830151848203602086015261066f828261050d565b91505060408301518482036040860152610689828261050d565b915050606083015184820360608601526106a3828261050d565b91505060808301516106b860808601826104cd565b5060a08301516106cb60a08601826104af565b5060c08301516106de60c08601826104be565b508091505092915050565b6106f281610886565b82525050565b600061070482846104dc565b915081905092915050565b600061071a8261057f565b9150819050919050565b600061072f826105bf565b9150819050919050565b6000610744826105ff565b9150819050919050565b600060208201905081810360008301526107688184610546565b905092915050565b6000602082019050818103600083015261078a818461063f565b905092915050565b6000604051905081810181811067ffffffffffffffff821117156107b557600080fd5b8060405250919050565b600067ffffffffffffffff8211156107d657600080fd5b601f19601f8301169050602081019050919050565b600081519050919050565b600081519050919050565b600082825260208201905092915050565b600082825260208201905092915050565b600081905092915050565b600061083982610866565b9050919050565b600081905061084e82610907565b919050565b600081905061086182610914565b919050565b600073ffffffffffffffffffffffffffffffffffffffff82169050919050565b6000819050919050565b600061089b82610840565b9050919050565b60006108ad82610853565b9050919050565b82818337600083830152505050565b60005b838110156108e15780820151818401526020810190506108c6565b838111156108f0576000848401525b50505050565b6000601f19601f8301169050919050565b6002811061091157fe5b50565b6004811061091e57fe5b50565b61092a81610886565b811461093557600080fd5b5056fea365627a7a72315820c17865aca5f9fedbac905ef1f34158a3d857bc6a99ae55e55a473663b0121f106c6578706572696d656e74616cf564736f6c63430005100040",
  "source": "// SPDX-License-Identifier: GPL-3.0\r\n// pragma solidity >=0.8.0 <=0.9.0;\r\npragma solidity >=0.5.16;\r\npragma experimental ABIEncoderV2;\r\n\r\n\r\nimport \"./Constants.sol\";\r\nimport \"./Queue.sol\";\r\n\r\ncontract Alerter{\r\n// To access enqueue of the queue. The constructor might need address to be passed. Verify it.\r\n    Queue queue;\r\n    constructor(Queue _queue) public{\r\n        queue = _queue;\r\n    }\r\n\r\n    // Count of currently open alerts.\r\n    uint alert_Count = 0;\r\n\r\n    // Event is raised when a new alert is created\r\n    event AlertCreated(string desc);\r\n\r\n    // // function to retrieve all the open alerts\r\n    // function getAlerts() public view returns(Alert[] memory){\r\n    //     return alerts;\r\n    // }\r\n\r\n    // Returns the alert type constant using the user entered string\r\n    function get_AlertType_from_string(string memory alertType) private pure returns(Constants.Alert_Type){\r\n    if( keccak256(abi.encodePacked((alertType))) == keccak256(abi.encodePacked((\"Fire\"))) )\r\n        return Constants.Alert_Type.Fire_Alert;\r\n    else if( keccak256(abi.encodePacked((alertType))) == keccak256(abi.encodePacked((\"Health\"))) )\r\n        return Constants.Alert_Type.Health_Emergency_Alert;\r\n    else if( keccak256(abi.encodePacked((alertType))) == keccak256(abi.encodePacked((\"Theft\"))) )\r\n        return Constants.Alert_Type.Theft_Alert;                \r\n    else \r\n        return Constants.Alert_Type.Invalid_Alert;\r\n    }\r\n\r\n\r\n    function setAlert(string memory title, string memory description, string memory recipient_Address, Constants.Alert_Type alertType) private{\r\n        alert_Count++;\r\n        Constants.Alert memory alert = Constants.Alert({\r\n            alertId : alert_Count,\r\n            title : title,\r\n            description : description,\r\n            recipient_Address : recipient_Address,\r\n            type_Of_Alert : alertType,\r\n            responder_Address : address(0),\r\n            status : Constants.Alert_Status.Open\r\n        });\r\n        queue.enqueue(alert);\r\n        emit AlertCreated(alert.title);\r\n    }\r\n\r\n    // Create a new Alert using this method\r\n    function createAlert(string memory title, string memory description, string memory recipient_Address, string memory alertType) public {\r\n        setAlert(title, description, recipient_Address, get_AlertType_from_string(alertType));\r\n    }\r\n}",
  "sourcePath": "C:\\Users\\varunbailapudi\\Documents\\Spring 2024\\Project Implementation\\AlertManagement\\contracts\\Alerter.sol",
  "compiler": {
    "name": "solc",
    "version": "0.5.16+commit.9c3226ce.Emscripten.clang"
  },
  "schemaVersion": "3.4.16",
  "updatedAt": "2024-05-09T16:41:02.872Z",
  "networkType": "ethereum",
  "devdoc": {
    "methods": {}
  },
  "userdoc": {
    "methods": {}
  }
}