{
  "contractName": "CFR",
  "abi": [
    {
      "inputs": [
        {
          "internalType": "contract Alerter",
          "name": "alerterAddr",
          "type": "address"
        }
      ],
      "payable": false,
      "stateMutability": "nonpayable",
      "type": "constructor"
    },
    {
      "constant": false,
      "inputs": [],
      "name": "provideInitialResponse",
      "outputs": [
        {
          "internalType": "uint256",
          "name": "",
          "type": "uint256"
        }
      ],
      "payable": false,
      "stateMutability": "nonpayable",
      "type": "function"
    }
  ],
  "bytecode": "0x608060405234801561001057600080fd5b506040516102e23803806102e28339818101604052610032919081019061008d565b806000806101000a81548173ffffffffffffffffffffffffffffffffffffffff021916908373ffffffffffffffffffffffffffffffffffffffff16021790555050610111565b600081519050610087816100fa565b92915050565b60006020828403121561009f57600080fd5b60006100ad84828501610078565b91505092915050565b60006100c1826100da565b9050919050565b60006100d3826100b6565b9050919050565b600073ffffffffffffffffffffffffffffffffffffffff82169050919050565b610103816100c8565b811461010e57600080fd5b50565b6101c2806101206000396000f3fe608060405234801561001057600080fd5b506004361061002b5760003560e01c8063ba88b02914610030575b600080fd5b61003861004e565b6040516100459190610143565b60405180910390f35b60008060009054906101000a900473ffffffffffffffffffffffffffffffffffffffff1673ffffffffffffffffffffffffffffffffffffffff1663156c33ed6040518163ffffffff1660e01b8152600401602060405180830381600087803b1580156100b957600080fd5b505af11580156100cd573d6000803e3d6000fd5b505050506040513d601f19601f820116820180604052506100f1919081019061010b565b905090565b60008151905061010581610168565b92915050565b60006020828403121561011d57600080fd5b600061012b848285016100f6565b91505092915050565b61013d8161015e565b82525050565b60006020820190506101586000830184610134565b92915050565b6000819050919050565b6101718161015e565b811461017c57600080fd5b5056fea365627a7a72315820fb447a293a289b06d4b92b6b823af7be8ac06972d5e8539e85f6164bdaec0a796c6578706572696d656e74616cf564736f6c63430005100040",
  "source": "// SPDX-License-Identifier: GPL-3.0\r\npragma solidity >=0.5.16;\r\npragma experimental ABIEncoderV2;\r\n\r\nimport \"./Alerter.sol\";\r\n\r\ncontract CFR{\r\n\r\n    Alerter alerter;\r\n\r\n    constructor(Alerter alerterAddr) public{\r\n        alerter = alerterAddr;\r\n    }\r\n\r\n    function provideInitialResponse() public returns(uint){\r\n        return alerter.cfrInitialResponse();\r\n    }\r\n}",
  "sourcePath": "C:\\Users\\varunbailapudi\\Documents\\Spring 2024\\Project Implementation\\AlertManagement\\contracts\\CFR.sol",
  "compiler": {
    "name": "solc",
    "version": "0.5.16+commit.9c3226ce.Emscripten.clang"
  },
  "schemaVersion": "3.4.16",
  "updatedAt": "2024-05-15T04:51:28.833Z",
  "networkType": "ethereum",
  "devdoc": {
    "methods": {}
  },
  "userdoc": {
    "methods": {}
  }
}