{
  "contractName": "Queue",
  "abi": [
    {
      "constant": false,
      "inputs": [
        {
          "components": [
            {
              "internalType": "uint256",
              "name": "alertId",
              "type": "uint256"
            },
            {
              "internalType": "string",
              "name": "title",
              "type": "string"
            },
            {
              "internalType": "string",
              "name": "description",
              "type": "string"
            },
            {
              "internalType": "string",
              "name": "recipient_Address",
              "type": "string"
            },
            {
              "internalType": "enum Constants.Alert_Type",
              "name": "type_Of_Alert",
              "type": "uint8"
            },
            {
              "internalType": "address",
              "name": "responder_Address",
              "type": "address"
            },
            {
              "internalType": "enum Constants.Alert_Status",
              "name": "status",
              "type": "uint8"
            }
          ],
          "internalType": "struct Constants.Alert",
          "name": "alert",
          "type": "tuple"
        }
      ],
      "name": "enqueue",
      "outputs": [
        {
          "internalType": "uint256",
          "name": "",
          "type": "uint256"
        }
      ],
      "payable": false,
      "stateMutability": "nonpayable",
      "type": "function"
    },
    {
      "constant": false,
      "inputs": [],
      "name": "dequeue",
      "outputs": [
        {
          "components": [
            {
              "internalType": "uint256",
              "name": "alertId",
              "type": "uint256"
            },
            {
              "internalType": "string",
              "name": "title",
              "type": "string"
            },
            {
              "internalType": "string",
              "name": "description",
              "type": "string"
            },
            {
              "internalType": "string",
              "name": "recipient_Address",
              "type": "string"
            },
            {
              "internalType": "enum Constants.Alert_Type",
              "name": "type_Of_Alert",
              "type": "uint8"
            },
            {
              "internalType": "address",
              "name": "responder_Address",
              "type": "address"
            },
            {
              "internalType": "enum Constants.Alert_Status",
              "name": "status",
              "type": "uint8"
            }
          ],
          "internalType": "struct Constants.Alert",
          "name": "",
          "type": "tuple"
        }
      ],
      "payable": false,
      "stateMutability": "nonpayable",
      "type": "function"
    },
    {
      "constant": true,
      "inputs": [],
      "name": "list_All_OpenAlerts",
      "outputs": [
        {
          "components": [
            {
              "internalType": "uint256",
              "name": "alertId",
              "type": "uint256"
            },
            {
              "internalType": "string",
              "name": "title",
              "type": "string"
            },
            {
              "internalType": "string",
              "name": "description",
              "type": "string"
            },
            {
              "internalType": "string",
              "name": "recipient_Address",
              "type": "string"
            },
            {
              "internalType": "enum Constants.Alert_Type",
              "name": "type_Of_Alert",
              "type": "uint8"
            },
            {
              "internalType": "address",
              "name": "responder_Address",
              "type": "address"
            },
            {
              "internalType": "enum Constants.Alert_Status",
              "name": "status",
              "type": "uint8"
            }
          ],
          "internalType": "struct Constants.Alert[]",
          "name": "",
          "type": "tuple[]"
        }
      ],
      "payable": false,
      "stateMutability": "view",
      "type": "function"
    },
    {
      "constant": true,
      "inputs": [],
      "name": "list_All_Responded_Alerts",
      "outputs": [
        {
          "components": [
            {
              "internalType": "uint256",
              "name": "alertId",
              "type": "uint256"
            },
            {
              "internalType": "string",
              "name": "title",
              "type": "string"
            },
            {
              "internalType": "string",
              "name": "description",
              "type": "string"
            },
            {
              "internalType": "string",
              "name": "recipient_Address",
              "type": "string"
            },
            {
              "internalType": "enum Constants.Alert_Type",
              "name": "type_Of_Alert",
              "type": "uint8"
            },
            {
              "internalType": "address",
              "name": "responder_Address",
              "type": "address"
            },
            {
              "internalType": "enum Constants.Alert_Status",
              "name": "status",
              "type": "uint8"
            }
          ],
          "internalType": "struct Constants.Alert[]",
          "name": "",
          "type": "tuple[]"
        }
      ],
      "payable": false,
      "stateMutability": "view",
      "type": "function"
    }
  ],
  "bytecode": "0x608060405234801561001057600080fd5b5061175e806100206000396000f3fe608060405234801561001057600080fd5b506004361061004c5760003560e01c8063615f834a146100515780636553a3bf1461006f578063957908d11461008d578063b406cce2146100ab575b600080fd5b6100596100db565b60405161006691906114cd565b60405180910390f35b6100776103da565b60405161008491906114cd565b60405180910390f35b6100956106d9565b6040516100a291906114ef565b60405180910390f35b6100c560048036036100c0919081019061122b565b610d75565b6040516100d29190611511565b60405180910390f35b60606001805480602002602001604051908101604052809291908181526020016000905b828210156103d157838290600052602060002090600502016040518060e001604052908160008201548152602001600182018054600181600116156101000203166002900480601f0160208091040260200160405190810160405280929190818152602001828054600181600116156101000203166002900480156101c55780601f1061019a576101008083540402835291602001916101c5565b820191906000526020600020905b8154815290600101906020018083116101a857829003601f168201915b50505050508152602001600282018054600181600116156101000203166002900480601f0160208091040260200160405190810160405280929190818152602001828054600181600116156101000203166002900480156102675780601f1061023c57610100808354040283529160200191610267565b820191906000526020600020905b81548152906001019060200180831161024a57829003601f168201915b50505050508152602001600382018054600181600116156101000203166002900480601f0160208091040260200160405190810160405280929190818152602001828054600181600116156101000203166002900480156103095780601f106102de57610100808354040283529160200191610309565b820191906000526020600020905b8154815290600101906020018083116102ec57829003601f168201915b505050505081526020016004820160009054906101000a900460ff16600381111561033057fe5b600381111561033b57fe5b81526020016004820160019054906101000a900473ffffffffffffffffffffffffffffffffffffffff1673ffffffffffffffffffffffffffffffffffffffff1673ffffffffffffffffffffffffffffffffffffffff1681526020016004820160159054906101000a900460ff1660018111156103b357fe5b60018111156103be57fe5b81525050815260200190600101906100ff565b50505050905090565b60606000805480602002602001604051908101604052809291908181526020016000905b828210156106d057838290600052602060002090600502016040518060e001604052908160008201548152602001600182018054600181600116156101000203166002900480601f0160208091040260200160405190810160405280929190818152602001828054600181600116156101000203166002900480156104c45780601f10610499576101008083540402835291602001916104c4565b820191906000526020600020905b8154815290600101906020018083116104a757829003601f168201915b50505050508152602001600282018054600181600116156101000203166002900480601f0160208091040260200160405190810160405280929190818152602001828054600181600116156101000203166002900480156105665780601f1061053b57610100808354040283529160200191610566565b820191906000526020600020905b81548152906001019060200180831161054957829003601f168201915b50505050508152602001600382018054600181600116156101000203166002900480601f0160208091040260200160405190810160405280929190818152602001828054600181600116156101000203166002900480156106085780601f106105dd57610100808354040283529160200191610608565b820191906000526020600020905b8154815290600101906020018083116105eb57829003601f168201915b505050505081526020016004820160009054906101000a900460ff16600381111561062f57fe5b600381111561063a57fe5b81526020016004820160019054906101000a900473ffffffffffffffffffffffffffffffffffffffff1673ffffffffffffffffffffffffffffffffffffffff1673ffffffffffffffffffffffffffffffffffffffff1681526020016004820160159054906101000a900460ff1660018111156106b257fe5b60018111156106bd57fe5b81525050815260200190600101906103fe565b50505050905090565b6106e1610eae565b60008080549050116106f257600080fd5b6106fa610eae565b6000808154811061070757fe5b90600052602060002090600502016040518060e001604052908160008201548152602001600182018054600181600116156101000203166002900480601f0160208091040260200160405190810160405280929190818152602001828054600181600116156101000203166002900480156107c35780601f10610798576101008083540402835291602001916107c3565b820191906000526020600020905b8154815290600101906020018083116107a657829003601f168201915b50505050508152602001600282018054600181600116156101000203166002900480601f0160208091040260200160405190810160405280929190818152602001828054600181600116156101000203166002900480156108655780601f1061083a57610100808354040283529160200191610865565b820191906000526020600020905b81548152906001019060200180831161084857829003601f168201915b50505050508152602001600382018054600181600116156101000203166002900480601f0160208091040260200160405190810160405280929190818152602001828054600181600116156101000203166002900480156109075780601f106108dc57610100808354040283529160200191610907565b820191906000526020600020905b8154815290600101906020018083116108ea57829003601f168201915b505050505081526020016004820160009054906101000a900460ff16600381111561092e57fe5b600381111561093957fe5b81526020016004820160019054906101000a900473ffffffffffffffffffffffffffffffffffffffff1673ffffffffffffffffffffffffffffffffffffffff1673ffffffffffffffffffffffffffffffffffffffff1681526020016004820160159054906101000a900460ff1660018111156109b157fe5b60018111156109bc57fe5b8152505090506000600190505b600080549050811015610b7457600081815481106109e357fe5b906000526020600020906005020160006001830381548110610a0157fe5b90600052602060002090600502016000820154816000015560018201816001019080546001816001161561010002031660029004610a40929190610f17565b5060028201816002019080546001816001161561010002031660029004610a68929190610f17565b5060038201816003019080546001816001161561010002031660029004610a90929190610f17565b506004820160009054906101000a900460ff168160040160006101000a81548160ff02191690836003811115610ac257fe5b02179055506004820160019054906101000a900473ffffffffffffffffffffffffffffffffffffffff168160040160016101000a81548173ffffffffffffffffffffffffffffffffffffffff021916908373ffffffffffffffffffffffffffffffffffffffff1602179055506004820160159054906101000a900460ff168160040160156101000a81548160ff02191690836001811115610b5f57fe5b021790555090505080806001019150506109c9565b506000805480610b8057fe5b6001900381819060005260206000209060050201600080820160009055600182016000610bad9190610f9e565b600282016000610bbd9190610f9e565b600382016000610bcd9190610f9e565b6004820160006101000a81549060ff02191690556004820160016101000a81549073ffffffffffffffffffffffffffffffffffffffff02191690556004820160156101000a81549060ff02191690555050905560018160c001906001811115610c3257fe5b90816001811115610c3f57fe5b8152505060018190806001815401808255809150509060018203906000526020600020906005020160009091929091909150600082015181600001556020820151816001019080519060200190610c97929190610fe6565b506040820151816002019080519060200190610cb4929190610fe6565b506060820151816003019080519060200190610cd1929190610fe6565b5060808201518160040160006101000a81548160ff02191690836003811115610cf657fe5b021790555060a08201518160040160016101000a81548173ffffffffffffffffffffffffffffffffffffffff021916908373ffffffffffffffffffffffffffffffffffffffff16021790555060c08201518160040160156101000a81548160ff02191690836001811115610d6657fe5b02179055505050508091505090565b6000808290806001815401808255809150509060018203906000526020600020906005020160009091929091909150600082015181600001556020820151816001019080519060200190610dca929190610fe6565b506040820151816002019080519060200190610de7929190610fe6565b506060820151816003019080519060200190610e04929190610fe6565b5060808201518160040160006101000a81548160ff02191690836003811115610e2957fe5b021790555060a08201518160040160016101000a81548173ffffffffffffffffffffffffffffffffffffffff021916908373ffffffffffffffffffffffffffffffffffffffff16021790555060c08201518160040160156101000a81548160ff02191690836001811115610e9957fe5b02179055505050506000805490509050919050565b6040518060e001604052806000815260200160608152602001606081526020016060815260200160006003811115610ee257fe5b8152602001600073ffffffffffffffffffffffffffffffffffffffff16815260200160006001811115610f1157fe5b81525090565b828054600181600116156101000203166002900490600052602060002090601f016020900481019282601f10610f505780548555610f8d565b82800160010185558215610f8d57600052602060002091601f016020900482015b82811115610f8c578254825591600101919060010190610f71565b5b509050610f9a9190611066565b5090565b50805460018160011615610100020316600290046000825580601f10610fc45750610fe3565b601f016020900490600052602060002090810190610fe29190611066565b5b50565b828054600181600116156101000203166002900490600052602060002090601f016020900481019282601f1061102757805160ff1916838001178555611055565b82800160010185558215611055579182015b82811115611054578251825591602001919060010190611039565b5b5090506110629190611066565b5090565b61108891905b8082111561108457600081600090555060010161106c565b5090565b90565b60008135905061109a816116cd565b92915050565b6000813590506110af816116e4565b92915050565b6000813590506110c4816116f4565b92915050565b600082601f8301126110db57600080fd5b81356110ee6110e982611559565b61152c565b9150808252602083016020830185838301111561110a57600080fd5b611115838284611660565b50505092915050565b600060e0828403121561113057600080fd5b61113a60e061152c565b9050600061114a84828501611216565b600083015250602082013567ffffffffffffffff81111561116a57600080fd5b611176848285016110ca565b602083015250604082013567ffffffffffffffff81111561119657600080fd5b6111a2848285016110ca565b604083015250606082013567ffffffffffffffff8111156111c257600080fd5b6111ce848285016110ca565b60608301525060806111e2848285016110b5565b60808301525060a06111f68482850161108b565b60a08301525060c061120a848285016110a0565b60c08301525092915050565b60008135905061122581611704565b92915050565b60006020828403121561123d57600080fd5b600082013567ffffffffffffffff81111561125757600080fd5b6112638482850161111e565b91505092915050565b60006112788383611405565b905092915050565b611289816115da565b82525050565b600061129a82611595565b6112a481856115b8565b9350836020820285016112b685611585565b8060005b858110156112f257848403895281516112d3858261126c565b94506112de836115ab565b925060208a019950506001810190506112ba565b50829750879550505050505092915050565b61130d8161163c565b82525050565b61131c8161164e565b82525050565b600061132d826115a0565b61133781856115c9565b935061134781856020860161166f565b611350816116a2565b840191505092915050565b600060e08301600083015161137360008601826114af565b506020830151848203602086015261138b8282611322565b915050604083015184820360408601526113a58282611322565b915050606083015184820360608601526113bf8282611322565b91505060808301516113d46080860182611313565b5060a08301516113e760a0860182611280565b5060c08301516113fa60c0860182611304565b508091505092915050565b600060e08301600083015161141d60008601826114af565b50602083015184820360208601526114358282611322565b9150506040830151848203604086015261144f8282611322565b915050606083015184820360608601526114698282611322565b915050608083015161147e6080860182611313565b5060a083015161149160a0860182611280565b5060c08301516114a460c0860182611304565b508091505092915050565b6114b881611632565b82525050565b6114c781611632565b82525050565b600060208201905081810360008301526114e7818461128f565b905092915050565b60006020820190508181036000830152611509818461135b565b905092915050565b600060208201905061152660008301846114be565b92915050565b6000604051905081810181811067ffffffffffffffff8211171561154f57600080fd5b8060405250919050565b600067ffffffffffffffff82111561157057600080fd5b601f19601f8301169050602081019050919050565b6000819050602082019050919050565b600081519050919050565b600081519050919050565b6000602082019050919050565b600082825260208201905092915050565b600082825260208201905092915050565b60006115e582611612565b9050919050565b60008190506115fa826116b3565b919050565b600081905061160d826116c0565b919050565b600073ffffffffffffffffffffffffffffffffffffffff82169050919050565b6000819050919050565b6000611647826115ec565b9050919050565b6000611659826115ff565b9050919050565b82818337600083830152505050565b60005b8381101561168d578082015181840152602081019050611672565b8381111561169c576000848401525b50505050565b6000601f19601f8301169050919050565b600281106116bd57fe5b50565b600481106116ca57fe5b50565b6116d6816115da565b81146116e157600080fd5b50565b600281106116f157600080fd5b50565b6004811061170157600080fd5b50565b61170d81611632565b811461171857600080fd5b5056fea365627a7a72315820cfb4b2adcd630727354eaeb5ba71d3fc39a36fec4c45c113c1076f0ebc32f7096c6578706572696d656e74616cf564736f6c63430005100040",
  "source": "// SPDX-License-Identifier: GPL-3.0\r\npragma solidity >=0.5.16;\r\npragma experimental ABIEncoderV2;\r\n\r\n\r\nimport \"./Constants.sol\";\r\n\r\n// The queue contract ensures FIFO ordering of the alerts, ie., the alert that is raised 1st will be responded first.\r\n// Right now, there is no method for responding to the alerts in random order, it can be added later if required.\r\n// Generally, a queue contains indexes first and last, since I am using 2 arrays I am not using the pointers.\r\ncontract Queue{\r\n\r\n// Keeps track of all the alerts that are currently open\r\n Constants.Alert[] openAlerts;\r\n\r\n//  Tracks the list of alerts that are responded and closed by the responder\r\n Constants.Alert[] closedAlerts;\r\n\r\n// Enqueue is only invoked by the Alerter to register a new alert.\r\n// Adds the new alert to the end of the array that contains open alerts.\r\n function enqueue(Constants.Alert memory alert) public returns(uint){\r\n    openAlerts.push(alert);\r\n    return openAlerts.length;\r\n }\r\n\r\n// Dequeue is invoked only by the Responder to close the alert,\r\n// Firstly, the alert at the 1st position of the openAlerts array is removed and added to the end of the closedAlerts. This ensures the FIFO order \r\n function dequeue() public returns(Constants.Alert memory){\r\n    // Check if there are any open alerts or not.\r\n    require(openAlerts.length>0);\r\n    // Holding the 1st alert to put into closed state.\r\n    Constants.Alert memory alert = openAlerts[0];\r\n\r\n    /* \r\n     Replacing the 1st alert from open alerts array. This maintains the FIFO order\r\n     So the loop copies all the elements to its previous index. \r\n     Next step is to delete the last element since it is already copied to its previous index.\r\n    */\r\n    for(uint i=1; i<openAlerts.length; i++){\r\n        openAlerts[i-1] = openAlerts[i];\r\n    }\r\n\r\n    openAlerts.pop();\r\n\r\n    // Mark the alert as closed and add it to the closedAlerts array\r\n    alert.status = Constants.Alert_Status.Closed;\r\n    closedAlerts.push(alert);\r\n    \r\n    // Return the number of Open Alerts\r\n   //  return openAlerts.length;\r\n\r\n// Instead of returning the length of the alerts array just send the alert id of the alert that is deleted. \r\n   return alert;\r\n } \r\n\r\n function list_All_OpenAlerts() public view returns(Constants.Alert[] memory){\r\n    return openAlerts;\r\n }\r\n\r\n function list_All_Responded_Alerts() public view returns(Constants.Alert[] memory){\r\n    return closedAlerts;\r\n }\r\n}",
  "sourcePath": "C:\\Users\\varunbailapudi\\Documents\\Spring 2024\\Project Implementation\\AlertManagement\\contracts\\Queue.sol",
  "compiler": {
    "name": "solc",
    "version": "0.5.16+commit.9c3226ce.Emscripten.clang"
  },
  "schemaVersion": "3.4.16",
  "updatedAt": "2024-05-15T04:51:28.821Z",
  "networkType": "ethereum",
  "devdoc": {
    "methods": {}
  },
  "userdoc": {
    "methods": {}
  }
}