{
  "contractName": "Queue",
  "abi": [
    {
      "inputs": [
        {
          "components": [
            {
              "internalType": "uint256",
              "name": "alertId",
              "type": "uint256"
            },
            {
              "internalType": "string",
              "name": "title",
              "type": "string"
            },
            {
              "internalType": "string",
              "name": "description",
              "type": "string"
            },
            {
              "internalType": "string",
              "name": "recipient_Address",
              "type": "string"
            },
            {
              "internalType": "enum Alert_Type",
              "name": "type_Of_Alert",
              "type": "uint8"
            },
            {
              "internalType": "address",
              "name": "responder_Address",
              "type": "address"
            },
            {
              "internalType": "enum Alert_Status",
              "name": "status",
              "type": "uint8"
            }
          ],
          "internalType": "struct Alert",
          "name": "alert",
          "type": "tuple"
        }
      ],
      "name": "enqueue",
      "outputs": [
        {
          "internalType": "uint256",
          "name": "",
          "type": "uint256"
        }
      ],
      "stateMutability": "nonpayable",
      "type": "function"
    },
    {
      "inputs": [],
      "name": "dequeue",
      "outputs": [
        {
          "internalType": "uint256",
          "name": "",
          "type": "uint256"
        }
      ],
      "stateMutability": "nonpayable",
      "type": "function"
    },
    {
      "inputs": [],
      "name": "list_All_OpenAlerts",
      "outputs": [
        {
          "components": [
            {
              "internalType": "uint256",
              "name": "alertId",
              "type": "uint256"
            },
            {
              "internalType": "string",
              "name": "title",
              "type": "string"
            },
            {
              "internalType": "string",
              "name": "description",
              "type": "string"
            },
            {
              "internalType": "string",
              "name": "recipient_Address",
              "type": "string"
            },
            {
              "internalType": "enum Alert_Type",
              "name": "type_Of_Alert",
              "type": "uint8"
            },
            {
              "internalType": "address",
              "name": "responder_Address",
              "type": "address"
            },
            {
              "internalType": "enum Alert_Status",
              "name": "status",
              "type": "uint8"
            }
          ],
          "internalType": "struct Alert[]",
          "name": "",
          "type": "tuple[]"
        }
      ],
      "stateMutability": "view",
      "type": "function"
    },
    {
      "inputs": [],
      "name": "list_All_Responded_Alerts",
      "outputs": [
        {
          "components": [
            {
              "internalType": "uint256",
              "name": "alertId",
              "type": "uint256"
            },
            {
              "internalType": "string",
              "name": "title",
              "type": "string"
            },
            {
              "internalType": "string",
              "name": "description",
              "type": "string"
            },
            {
              "internalType": "string",
              "name": "recipient_Address",
              "type": "string"
            },
            {
              "internalType": "enum Alert_Type",
              "name": "type_Of_Alert",
              "type": "uint8"
            },
            {
              "internalType": "address",
              "name": "responder_Address",
              "type": "address"
            },
            {
              "internalType": "enum Alert_Status",
              "name": "status",
              "type": "uint8"
            }
          ],
          "internalType": "struct Alert[]",
          "name": "",
          "type": "tuple[]"
        }
      ],
      "stateMutability": "view",
      "type": "function"
    }
  ],
  "bytecode": "0x608060405234801561000f575f80fd5b506119d98061001d5f395ff3fe608060405234801561000f575f80fd5b506004361061004a575f3560e01c8063615f834a1461004e5780636553a3bf1461006c578063957908d11461008a578063b406cce2146100a8575b5f80fd5b6100566100d8565b604051610063919061116c565b60405180910390f35b6100746103b8565b604051610081919061116c565b60405180910390f35b610092610697565b60405161009f919061119b565b60405180910390f35b6100c260048036038101906100bd9190611498565b610cf1565b6040516100cf919061119b565b60405180910390f35b60606001805480602002602001604051908101604052809291908181526020015f905b828210156103af578382905f5260205f2090600502016040518060e00160405290815f82015481526020016001820180546101359061150c565b80601f01602080910402602001604051908101604052809291908181526020018280546101619061150c565b80156101ac5780601f10610183576101008083540402835291602001916101ac565b820191905f5260205f20905b81548152906001019060200180831161018f57829003601f168201915b505050505081526020016002820180546101c59061150c565b80601f01602080910402602001604051908101604052809291908181526020018280546101f19061150c565b801561023c5780601f106102135761010080835404028352916020019161023c565b820191905f5260205f20905b81548152906001019060200180831161021f57829003601f168201915b505050505081526020016003820180546102559061150c565b80601f01602080910402602001604051908101604052809291908181526020018280546102819061150c565b80156102cc5780601f106102a3576101008083540402835291602001916102cc565b820191905f5260205f20905b8154815290600101906020018083116102af57829003601f168201915b50505050508152602001600482015f9054906101000a900460ff1660038111156102f9576102f8610f3b565b5b600381111561030b5761030a610f3b565b5b81526020016004820160019054906101000a900473ffffffffffffffffffffffffffffffffffffffff1673ffffffffffffffffffffffffffffffffffffffff1673ffffffffffffffffffffffffffffffffffffffff1681526020016004820160159054906101000a900460ff16600181111561038a57610389610f3b565b5b600181111561039c5761039b610f3b565b5b81525050815260200190600101906100fb565b50505050905090565b60605f805480602002602001604051908101604052809291908181526020015f905b8282101561068e578382905f5260205f2090600502016040518060e00160405290815f82015481526020016001820180546104149061150c565b80601f01602080910402602001604051908101604052809291908181526020018280546104409061150c565b801561048b5780601f106104625761010080835404028352916020019161048b565b820191905f5260205f20905b81548152906001019060200180831161046e57829003601f168201915b505050505081526020016002820180546104a49061150c565b80601f01602080910402602001604051908101604052809291908181526020018280546104d09061150c565b801561051b5780601f106104f25761010080835404028352916020019161051b565b820191905f5260205f20905b8154815290600101906020018083116104fe57829003601f168201915b505050505081526020016003820180546105349061150c565b80601f01602080910402602001604051908101604052809291908181526020018280546105609061150c565b80156105ab5780601f10610582576101008083540402835291602001916105ab565b820191905f5260205f20905b81548152906001019060200180831161058e57829003601f168201915b50505050508152602001600482015f9054906101000a900460ff1660038111156105d8576105d7610f3b565b5b60038111156105ea576105e9610f3b565b5b81526020016004820160019054906101000a900473ffffffffffffffffffffffffffffffffffffffff1673ffffffffffffffffffffffffffffffffffffffff1673ffffffffffffffffffffffffffffffffffffffff1681526020016004820160159054906101000a900460ff16600181111561066957610668610f3b565b5b600181111561067b5761067a610f3b565b5b81525050815260200190600101906103da565b50505050905090565b5f805f80549050116106a7575f80fd5b5f805f815481106106bb576106ba61153c565b5b905f5260205f2090600502016040518060e00160405290815f82015481526020016001820180546106eb9061150c565b80601f01602080910402602001604051908101604052809291908181526020018280546107179061150c565b80156107625780601f1061073957610100808354040283529160200191610762565b820191905f5260205f20905b81548152906001019060200180831161074557829003601f168201915b5050505050815260200160028201805461077b9061150c565b80601f01602080910402602001604051908101604052809291908181526020018280546107a79061150c565b80156107f25780601f106107c9576101008083540402835291602001916107f2565b820191905f5260205f20905b8154815290600101906020018083116107d557829003601f168201915b5050505050815260200160038201805461080b9061150c565b80601f01602080910402602001604051908101604052809291908181526020018280546108379061150c565b80156108825780601f1061085957610100808354040283529160200191610882565b820191905f5260205f20905b81548152906001019060200180831161086557829003601f168201915b50505050508152602001600482015f9054906101000a900460ff1660038111156108af576108ae610f3b565b5b60038111156108c1576108c0610f3b565b5b81526020016004820160019054906101000a900473ffffffffffffffffffffffffffffffffffffffff1673ffffffffffffffffffffffffffffffffffffffff1673ffffffffffffffffffffffffffffffffffffffff1681526020016004820160159054906101000a900460ff1660018111156109405761093f610f3b565b5b600181111561095257610951610f3b565b5b8152505090505f600190505b5f80549050811015610af0575f818154811061097d5761097c61153c565b5b905f5260205f2090600502015f6001836109979190611596565b815481106109a8576109a761153c565b5b905f5260205f2090600502015f820154815f0155600182018160010190816109d0919061177b565b50600282018160020190816109e5919061177b565b50600382018160030190816109fa919061177b565b50600482015f9054906101000a900460ff16816004015f6101000a81548160ff02191690836003811115610a3157610a30610f3b565b5b02179055506004820160019054906101000a900473ffffffffffffffffffffffffffffffffffffffff168160040160016101000a81548173ffffffffffffffffffffffffffffffffffffffff021916908373ffffffffffffffffffffffffffffffffffffffff1602179055506004820160159054906101000a900460ff168160040160156101000a81548160ff02191690836001811115610ad557610ad4610f3b565b5b02179055509050508080610ae890611860565b91505061095e565b505f805480610b0257610b016118a7565b5b600190038181905f5260205f2090600502015f8082015f9055600182015f610b2a9190610e18565b600282015f610b399190610e18565b600382015f610b489190610e18565b600482015f6101000a81549060ff02191690556004820160016101000a81549073ffffffffffffffffffffffffffffffffffffffff02191690556004820160156101000a81549060ff02191690555050905560018160c001906001811115610bb357610bb2610f3b565b5b90816001811115610bc757610bc6610f3b565b5b81525050600181908060018154018082558091505060019003905f5260205f2090600502015f909190919091505f820151815f01556020820151816001019081610c1191906118d4565b506040820151816002019081610c2791906118d4565b506060820151816003019081610c3d91906118d4565b506080820151816004015f6101000a81548160ff02191690836003811115610c6857610c67610f3b565b5b021790555060a08201518160040160016101000a81548173ffffffffffffffffffffffffffffffffffffffff021916908373ffffffffffffffffffffffffffffffffffffffff16021790555060c08201518160040160156101000a81548160ff02191690836001811115610cdf57610cde610f3b565b5b021790555050505f8054905091505090565b5f8082908060018154018082558091505060019003905f5260205f2090600502015f909190919091505f820151815f01556020820151816001019081610d3791906118d4565b506040820151816002019081610d4d91906118d4565b506060820151816003019081610d6391906118d4565b506080820151816004015f6101000a81548160ff02191690836003811115610d8e57610d8d610f3b565b5b021790555060a08201518160040160016101000a81548173ffffffffffffffffffffffffffffffffffffffff021916908373ffffffffffffffffffffffffffffffffffffffff16021790555060c08201518160040160156101000a81548160ff02191690836001811115610e0557610e04610f3b565b5b021790555050505f805490509050919050565b508054610e249061150c565b5f825580601f10610e355750610e52565b601f0160209004905f5260205f2090810190610e519190610e55565b5b50565b5b80821115610e6c575f815f905550600101610e56565b5090565b5f81519050919050565b5f82825260208201905092915050565b5f819050602082019050919050565b5f819050919050565b610eab81610e99565b82525050565b5f81519050919050565b5f82825260208201905092915050565b5f5b83811015610ee8578082015181840152602081019050610ecd565b5f8484015250505050565b5f601f19601f8301169050919050565b5f610f0d82610eb1565b610f178185610ebb565b9350610f27818560208601610ecb565b610f3081610ef3565b840191505092915050565b7f4e487b71000000000000000000000000000000000000000000000000000000005f52602160045260245ffd5b60048110610f7957610f78610f3b565b5b50565b5f819050610f8982610f68565b919050565b5f610f9882610f7c565b9050919050565b610fa881610f8e565b82525050565b5f73ffffffffffffffffffffffffffffffffffffffff82169050919050565b5f610fd782610fae565b9050919050565b610fe781610fcd565b82525050565b60028110610ffe57610ffd610f3b565b5b50565b5f81905061100e82610fed565b919050565b5f61101d82611001565b9050919050565b61102d81611013565b82525050565b5f60e083015f8301516110485f860182610ea2565b50602083015184820360208601526110608282610f03565b9150506040830151848203604086015261107a8282610f03565b915050606083015184820360608601526110948282610f03565b91505060808301516110a96080860182610f9f565b5060a08301516110bc60a0860182610fde565b5060c08301516110cf60c0860182611024565b508091505092915050565b5f6110e58383611033565b905092915050565b5f602082019050919050565b5f61110382610e70565b61110d8185610e7a565b93508360208202850161111f85610e8a565b805f5b8581101561115a578484038952815161113b85826110da565b9450611146836110ed565b925060208a01995050600181019050611122565b50829750879550505050505092915050565b5f6020820190508181035f83015261118481846110f9565b905092915050565b61119581610e99565b82525050565b5f6020820190506111ae5f83018461118c565b92915050565b5f604051905090565b5f80fd5b5f80fd5b5f80fd5b7f4e487b71000000000000000000000000000000000000000000000000000000005f52604160045260245ffd5b6111ff82610ef3565b810181811067ffffffffffffffff8211171561121e5761121d6111c9565b5b80604052505050565b5f6112306111b4565b905061123c82826111f6565b919050565b5f80fd5b61124e81610e99565b8114611258575f80fd5b50565b5f8135905061126981611245565b92915050565b5f80fd5b5f80fd5b5f67ffffffffffffffff821115611291576112906111c9565b5b61129a82610ef3565b9050602081019050919050565b828183375f83830152505050565b5f6112c76112c284611277565b611227565b9050828152602081018484840111156112e3576112e2611273565b5b6112ee8482856112a7565b509392505050565b5f82601f83011261130a5761130961126f565b5b813561131a8482602086016112b5565b91505092915050565b6004811061132f575f80fd5b50565b5f8135905061134081611323565b92915050565b61134f81610fcd565b8114611359575f80fd5b50565b5f8135905061136a81611346565b92915050565b6002811061137c575f80fd5b50565b5f8135905061138d81611370565b92915050565b5f60e082840312156113a8576113a76111c5565b5b6113b260e0611227565b90505f6113c18482850161125b565b5f83015250602082013567ffffffffffffffff8111156113e4576113e3611241565b5b6113f0848285016112f6565b602083015250604082013567ffffffffffffffff81111561141457611413611241565b5b611420848285016112f6565b604083015250606082013567ffffffffffffffff81111561144457611443611241565b5b611450848285016112f6565b606083015250608061146484828501611332565b60808301525060a06114788482850161135c565b60a08301525060c061148c8482850161137f565b60c08301525092915050565b5f602082840312156114ad576114ac6111bd565b5b5f82013567ffffffffffffffff8111156114ca576114c96111c1565b5b6114d684828501611393565b91505092915050565b7f4e487b71000000000000000000000000000000000000000000000000000000005f52602260045260245ffd5b5f600282049050600182168061152357607f821691505b602082108103611536576115356114df565b5b50919050565b7f4e487b71000000000000000000000000000000000000000000000000000000005f52603260045260245ffd5b7f4e487b71000000000000000000000000000000000000000000000000000000005f52601160045260245ffd5b5f6115a082610e99565b91506115ab83610e99565b92508282039050818111156115c3576115c2611569565b5b92915050565b5f815490506115d78161150c565b9050919050565b5f819050815f5260205f209050919050565b5f6020601f8301049050919050565b5f82821b905092915050565b5f6008830261163a7fffffffffffffffffffffffffffffffffffffffffffffffffffffffffffffffff826115ff565b61164486836115ff565b95508019841693508086168417925050509392505050565b5f819050919050565b5f61167f61167a61167584610e99565b61165c565b610e99565b9050919050565b5f819050919050565b61169883611665565b6116ac6116a482611686565b84845461160b565b825550505050565b5f90565b6116c06116b4565b6116cb81848461168f565b505050565b5b818110156116ee576116e35f826116b8565b6001810190506116d1565b5050565b601f82111561173357611704816115de565b61170d846115f0565b8101602085101561171c578190505b611730611728856115f0565b8301826116d0565b50505b505050565b5f82821c905092915050565b5f6117535f1984600802611738565b1980831691505092915050565b5f61176b8383611744565b9150826002028217905092915050565b81810361178957505061185e565b611792826115c9565b67ffffffffffffffff8111156117ab576117aa6111c9565b5b6117b5825461150c565b6117c08282856116f2565b5f601f8311600181146117ed575f84156117db578287015490505b6117e58582611760565b865550611857565b601f1984166117fb876115de565b9650611806866115de565b5f5b8281101561182d57848901548255600182019150600185019450602081019050611808565b8683101561184a5784890154611846601f891682611744565b8355505b6001600288020188555050505b5050505050505b565b5f61186a82610e99565b91507fffffffffffffffffffffffffffffffffffffffffffffffffffffffffffffffff820361189c5761189b611569565b5b600182019050919050565b7f4e487b71000000000000000000000000000000000000000000000000000000005f52603160045260245ffd5b6118dd82610eb1565b67ffffffffffffffff8111156118f6576118f56111c9565b5b611900825461150c565b61190b8282856116f2565b5f60209050601f83116001811461193c575f841561192a578287015190505b6119348582611760565b86555061199b565b601f19841661194a866115de565b5f5b828110156119715784890151825560018201915060208501945060208101905061194c565b8683101561198e578489015161198a601f891682611744565b8355505b6001600288020188555050505b50505050505056fea2646970667358221220b1f67aa0a5bc3470e1460ed3a2b43fc8712543fa47a068e74f263e467eb2cfad64736f6c63430008150033",
  "immutableReferences": {},
  "source": "// SPDX-License-Identifier: GPL-3.0\r\npragma solidity >=0.5.16;\r\n\r\nimport \"./Constants.sol\";\r\n\r\n// The queue contract ensures FIFO ordering of the alerts, ie., the alert that is raised 1st will be responded first.\r\n// Right now, there is no method for responding to the alerts in random order, it can be added later if required.\r\n// Generally, a queue contains indexes first and last, since I am using 2 arrays I am not using the pointers.\r\ncontract Queue{\r\n\r\n// Keeps track of all the alerts that are currently open\r\n Alert[] openAlerts;\r\n\r\n//  Tracks the list of alerts that are responded and closed by the responder\r\n Alert[] closedAlerts;\r\n\r\n// Enqueue is only invoked by the Alerter to register a new alert.\r\n// Adds the new alert to the end of the array that contains open alerts.\r\n function enqueue(Alert memory alert) public returns(uint){\r\n    openAlerts.push(alert);\r\n    return openAlerts.length;\r\n }\r\n\r\n// Dequeue is invoked only by the Responder to close the alert,\r\n// Firstly, the alert at the 1st position of the openAlerts array is removed and added to the end of the closedAlerts. This ensures the FIFO order \r\n function dequeue() public returns(uint){\r\n    // Check if there are any open alerts or not.\r\n    require(openAlerts.length>0);\r\n    // Holding the 1st alert to put into closed state.\r\n    Alert memory alert = openAlerts[0];\r\n\r\n    /* \r\n     Replacing the 1st alert from open alerts array. This maintains the FIFO order\r\n     So the loop copies all the elements to its previous index. \r\n     Next step is to delete the last element since it is already copied to its previous index.\r\n    */\r\n    for(uint i=1; i<openAlerts.length; i++){\r\n        openAlerts[i-1] = openAlerts[i];\r\n    }\r\n\r\n    openAlerts.pop();\r\n\r\n    // Mark the alert as closed and add it to the closedAlerts array\r\n    alert.status = Alert_Status.Closed;\r\n    closedAlerts.push(alert);\r\n    \r\n    // Return the number of Open Alerts\r\n    return openAlerts.length;\r\n } \r\n\r\n function list_All_OpenAlerts() public view returns(Alert[] memory){\r\n    return openAlerts;\r\n }\r\n\r\n function list_All_Responded_Alerts() public view returns(Alert[] memory){\r\n    return closedAlerts;\r\n }\r\n\r\n}",
  "sourcePath": "C:\\Users\\varunbailapudi\\Documents\\Spring 2024\\Project Implementation\\AlertManagement\\contracts\\Queue.sol",
  "compiler": {
    "name": "solc",
    "version": "0.8.21+commit.d9974bed.Emscripten.clang"
  },
  "schemaVersion": "3.4.16",
  "updatedAt": "2024-05-05T23:54:19.034Z",
  "devdoc": {
    "kind": "dev",
    "methods": {},
    "version": 1
  },
  "userdoc": {
    "kind": "user",
    "methods": {},
    "version": 1
  }
}