{
  "contractName": "Queue",
  "abi": [
    {
      "inputs": [
        {
          "components": [
            {
              "internalType": "uint256",
              "name": "alertId",
              "type": "uint256"
            },
            {
              "internalType": "string",
              "name": "title",
              "type": "string"
            },
            {
              "internalType": "string",
              "name": "description",
              "type": "string"
            },
            {
              "internalType": "string",
              "name": "recipient_Address",
              "type": "string"
            },
            {
              "internalType": "enum Alert_Type",
              "name": "type_Of_Alert",
              "type": "uint8"
            },
            {
              "internalType": "address",
              "name": "responder_Address",
              "type": "address"
            },
            {
              "internalType": "enum Alert_Status",
              "name": "status",
              "type": "uint8"
            }
          ],
          "internalType": "struct Alert",
          "name": "alert",
          "type": "tuple"
        }
      ],
      "name": "enqueue",
      "outputs": [
        {
          "internalType": "uint256",
          "name": "",
          "type": "uint256"
        }
      ],
      "stateMutability": "nonpayable",
      "type": "function"
    },
    {
      "inputs": [],
      "name": "dequeue",
      "outputs": [
        {
          "internalType": "uint256",
          "name": "",
          "type": "uint256"
        }
      ],
      "stateMutability": "nonpayable",
      "type": "function"
    }
  ],
  "bytecode": "0x608060405234801561000f575f80fd5b5061112c8061001d5f395ff3fe608060405234801561000f575f80fd5b5060043610610034575f3560e01c8063957908d114610038578063b406cce214610056575b5f80fd5b610040610086565b60405161004d9190610877565b60405180910390f35b610070600480360381019061006b9190610bb4565b6106e0565b60405161007d9190610877565b60405180910390f35b5f805f8054905011610096575f80fd5b5f805f815481106100aa576100a9610bfb565b5b905f5260205f2090600502016040518060e00160405290815f82015481526020016001820180546100da90610c55565b80601f016020809104026020016040519081016040528092919081815260200182805461010690610c55565b80156101515780601f1061012857610100808354040283529160200191610151565b820191905f5260205f20905b81548152906001019060200180831161013457829003601f168201915b5050505050815260200160028201805461016a90610c55565b80601f016020809104026020016040519081016040528092919081815260200182805461019690610c55565b80156101e15780601f106101b8576101008083540402835291602001916101e1565b820191905f5260205f20905b8154815290600101906020018083116101c457829003601f168201915b505050505081526020016003820180546101fa90610c55565b80601f016020809104026020016040519081016040528092919081815260200182805461022690610c55565b80156102715780601f1061024857610100808354040283529160200191610271565b820191905f5260205f20905b81548152906001019060200180831161025457829003601f168201915b50505050508152602001600482015f9054906101000a900460ff16600381111561029e5761029d610c85565b5b60038111156102b0576102af610c85565b5b81526020016004820160019054906101000a900473ffffffffffffffffffffffffffffffffffffffff1673ffffffffffffffffffffffffffffffffffffffff1673ffffffffffffffffffffffffffffffffffffffff1681526020016004820160159054906101000a900460ff16600181111561032f5761032e610c85565b5b600181111561034157610340610c85565b5b8152505090505f600190505b5f805490508110156104df575f818154811061036c5761036b610bfb565b5b905f5260205f2090600502015f6001836103869190610cdf565b8154811061039757610396610bfb565b5b905f5260205f2090600502015f820154815f0155600182018160010190816103bf9190610ec4565b50600282018160020190816103d49190610ec4565b50600382018160030190816103e99190610ec4565b50600482015f9054906101000a900460ff16816004015f6101000a81548160ff021916908360038111156104205761041f610c85565b5b02179055506004820160019054906101000a900473ffffffffffffffffffffffffffffffffffffffff168160040160016101000a81548173ffffffffffffffffffffffffffffffffffffffff021916908373ffffffffffffffffffffffffffffffffffffffff1602179055506004820160159054906101000a900460ff168160040160156101000a81548160ff021916908360018111156104c4576104c3610c85565b5b021790555090505080806104d790610fa9565b91505061034d565b505f8054806104f1576104f0610ff0565b5b600190038181905f5260205f2090600502015f8082015f9055600182015f6105199190610807565b600282015f6105289190610807565b600382015f6105379190610807565b600482015f6101000a81549060ff02191690556004820160016101000a81549073ffffffffffffffffffffffffffffffffffffffff02191690556004820160156101000a81549060ff02191690555050905560018160c0019060018111156105a2576105a1610c85565b5b908160018111156105b6576105b5610c85565b5b81525050600181908060018154018082558091505060019003905f5260205f2090600502015f909190919091505f820151815f015560208201518160010190816106009190611027565b5060408201518160020190816106169190611027565b50606082015181600301908161062c9190611027565b506080820151816004015f6101000a81548160ff0219169083600381111561065757610656610c85565b5b021790555060a08201518160040160016101000a81548173ffffffffffffffffffffffffffffffffffffffff021916908373ffffffffffffffffffffffffffffffffffffffff16021790555060c08201518160040160156101000a81548160ff021916908360018111156106ce576106cd610c85565b5b021790555050505f8054905091505090565b5f8082908060018154018082558091505060019003905f5260205f2090600502015f909190919091505f820151815f015560208201518160010190816107269190611027565b50604082015181600201908161073c9190611027565b5060608201518160030190816107529190611027565b506080820151816004015f6101000a81548160ff0219169083600381111561077d5761077c610c85565b5b021790555060a08201518160040160016101000a81548173ffffffffffffffffffffffffffffffffffffffff021916908373ffffffffffffffffffffffffffffffffffffffff16021790555060c08201518160040160156101000a81548160ff021916908360018111156107f4576107f3610c85565b5b021790555050505f805490509050919050565b50805461081390610c55565b5f825580601f106108245750610841565b601f0160209004905f5260205f20908101906108409190610844565b5b50565b5b8082111561085b575f815f905550600101610845565b5090565b5f819050919050565b6108718161085f565b82525050565b5f60208201905061088a5f830184610868565b92915050565b5f604051905090565b5f80fd5b5f80fd5b5f80fd5b5f601f19601f8301169050919050565b7f4e487b71000000000000000000000000000000000000000000000000000000005f52604160045260245ffd5b6108eb826108a5565b810181811067ffffffffffffffff8211171561090a576109096108b5565b5b80604052505050565b5f61091c610890565b905061092882826108e2565b919050565b5f80fd5b61093a8161085f565b8114610944575f80fd5b50565b5f8135905061095581610931565b92915050565b5f80fd5b5f80fd5b5f67ffffffffffffffff82111561097d5761097c6108b5565b5b610986826108a5565b9050602081019050919050565b828183375f83830152505050565b5f6109b36109ae84610963565b610913565b9050828152602081018484840111156109cf576109ce61095f565b5b6109da848285610993565b509392505050565b5f82601f8301126109f6576109f561095b565b5b8135610a068482602086016109a1565b91505092915050565b60048110610a1b575f80fd5b50565b5f81359050610a2c81610a0f565b92915050565b5f73ffffffffffffffffffffffffffffffffffffffff82169050919050565b5f610a5b82610a32565b9050919050565b610a6b81610a51565b8114610a75575f80fd5b50565b5f81359050610a8681610a62565b92915050565b60028110610a98575f80fd5b50565b5f81359050610aa981610a8c565b92915050565b5f60e08284031215610ac457610ac36108a1565b5b610ace60e0610913565b90505f610add84828501610947565b5f83015250602082013567ffffffffffffffff811115610b0057610aff61092d565b5b610b0c848285016109e2565b602083015250604082013567ffffffffffffffff811115610b3057610b2f61092d565b5b610b3c848285016109e2565b604083015250606082013567ffffffffffffffff811115610b6057610b5f61092d565b5b610b6c848285016109e2565b6060830152506080610b8084828501610a1e565b60808301525060a0610b9484828501610a78565b60a08301525060c0610ba884828501610a9b565b60c08301525092915050565b5f60208284031215610bc957610bc8610899565b5b5f82013567ffffffffffffffff811115610be657610be561089d565b5b610bf284828501610aaf565b91505092915050565b7f4e487b71000000000000000000000000000000000000000000000000000000005f52603260045260245ffd5b7f4e487b71000000000000000000000000000000000000000000000000000000005f52602260045260245ffd5b5f6002820490506001821680610c6c57607f821691505b602082108103610c7f57610c7e610c28565b5b50919050565b7f4e487b71000000000000000000000000000000000000000000000000000000005f52602160045260245ffd5b7f4e487b71000000000000000000000000000000000000000000000000000000005f52601160045260245ffd5b5f610ce98261085f565b9150610cf48361085f565b9250828203905081811115610d0c57610d0b610cb2565b5b92915050565b5f81549050610d2081610c55565b9050919050565b5f819050815f5260205f209050919050565b5f6020601f8301049050919050565b5f82821b905092915050565b5f60088302610d837fffffffffffffffffffffffffffffffffffffffffffffffffffffffffffffffff82610d48565b610d8d8683610d48565b95508019841693508086168417925050509392505050565b5f819050919050565b5f610dc8610dc3610dbe8461085f565b610da5565b61085f565b9050919050565b5f819050919050565b610de183610dae565b610df5610ded82610dcf565b848454610d54565b825550505050565b5f90565b610e09610dfd565b610e14818484610dd8565b505050565b5b81811015610e3757610e2c5f82610e01565b600181019050610e1a565b5050565b601f821115610e7c57610e4d81610d27565b610e5684610d39565b81016020851015610e65578190505b610e79610e7185610d39565b830182610e19565b50505b505050565b5f82821c905092915050565b5f610e9c5f1984600802610e81565b1980831691505092915050565b5f610eb48383610e8d565b9150826002028217905092915050565b818103610ed2575050610fa7565b610edb82610d12565b67ffffffffffffffff811115610ef457610ef36108b5565b5b610efe8254610c55565b610f09828285610e3b565b5f601f831160018114610f36575f8415610f24578287015490505b610f2e8582610ea9565b865550610fa0565b601f198416610f4487610d27565b9650610f4f86610d27565b5f5b82811015610f7657848901548255600182019150600185019450602081019050610f51565b86831015610f935784890154610f8f601f891682610e8d565b8355505b6001600288020188555050505b5050505050505b565b5f610fb38261085f565b91507fffffffffffffffffffffffffffffffffffffffffffffffffffffffffffffffff8203610fe557610fe4610cb2565b5b600182019050919050565b7f4e487b71000000000000000000000000000000000000000000000000000000005f52603160045260245ffd5b5f81519050919050565b6110308261101d565b67ffffffffffffffff811115611049576110486108b5565b5b6110538254610c55565b61105e828285610e3b565b5f60209050601f83116001811461108f575f841561107d578287015190505b6110878582610ea9565b8655506110ee565b601f19841661109d86610d27565b5f5b828110156110c45784890151825560018201915060208501945060208101905061109f565b868310156110e157848901516110dd601f891682610e8d565b8355505b6001600288020188555050505b50505050505056fea2646970667358221220c028e669243b83f9ffa27a2503dfc2bb6698b563c6a81019aaf584ba6b41f91364736f6c63430008150033",
  "immutableReferences": {},
  "source": "// SPDX-License-Identifier: GPL-3.0\r\npragma solidity >=0.5.16;\r\n\r\nimport \"./Constants.sol\";\r\n\r\n// The queue contract ensures FIFO ordering of the alerts, ie., the alert that is raised 1st will be responded first.\r\n// Right now, there is no method for responding to the alerts in random order, it can be added later if required.\r\n// Generally, a queue contains indexes first and last, since I am using 2 arrays I am not using the pointers.\r\ncontract Queue{\r\n\r\n// Keeps track of all the alerts that are currently open\r\n Alert[] openAlerts;\r\n\r\n//  Tracks the list of alerts that are responded and closed by the responder\r\n Alert[] closedAlerts;\r\n\r\n// Enqueue is only invoked by the Alerter to register a new alert.\r\n// Adds the new alert to the end of the array that contains open alerts.\r\n function enqueue(Alert memory alert) public returns(uint){\r\n    openAlerts.push(alert);\r\n    return openAlerts.length;\r\n }\r\n\r\n// Dequeue is invoked only by the Responder to close the alert,\r\n// Firstly, the alert at the 1st position of the openAlerts array is removed and added to the end of the closedAlerts. This ensures the FIFO order \r\n function dequeue() public returns(uint){\r\n    // Check if there are any open alerts or not.\r\n    require(openAlerts.length>0);\r\n    // Holding the 1st alert to put into closed state.\r\n    Alert memory alert = openAlerts[0];\r\n\r\n    /* \r\n     Replacing the 1st alert from open alerts array. This maintains the FIFO order\r\n     So the loop copies all the elements to its previous index. \r\n     Next step is to delete the last element since it is already copied to its previous index.\r\n    */\r\n    for(uint i=1; i<openAlerts.length; i++){\r\n        openAlerts[i-1] = openAlerts[i];\r\n    }\r\n\r\n    openAlerts.pop();\r\n\r\n    // Mark the alert as closed and add it to the closedAlerts array\r\n    alert.status = Alert_Status.Closed;\r\n    closedAlerts.push(alert);\r\n    \r\n    // Return the number of Open Alerts\r\n    return openAlerts.length;\r\n } \r\n\r\n}",
  "sourcePath": "C:\\Users\\varunbailapudi\\Documents\\Spring 2024\\Project Implementation\\AlertManagement\\contracts\\Queue.sol",
  "compiler": {
    "name": "solc",
    "version": "0.8.21+commit.d9974bed.Emscripten.clang"
  },
  "schemaVersion": "3.4.16",
  "updatedAt": "2024-05-05T23:28:49.895Z",
  "devdoc": {
    "kind": "dev",
    "methods": {},
    "version": 1
  },
  "userdoc": {
    "kind": "user",
    "methods": {},
    "version": 1
  }
}