{
  "contractName": "Responder",
  "abi": [
    {
      "inputs": [
        {
          "internalType": "contract Queue",
          "name": "_address",
          "type": "address"
        },
        {
          "internalType": "contract Alerter",
          "name": "_Alerter",
          "type": "address"
        },
        {
          "internalType": "contract CFR",
          "name": "_cfrAddr",
          "type": "address"
        }
      ],
      "payable": false,
      "stateMutability": "nonpayable",
      "type": "constructor"
    },
    {
      "constant": true,
      "inputs": [
        {
          "internalType": "uint256",
          "name": "",
          "type": "uint256"
        }
      ],
      "name": "cfrAddresses",
      "outputs": [
        {
          "internalType": "address",
          "name": "",
          "type": "address"
        }
      ],
      "payable": false,
      "stateMutability": "view",
      "type": "function"
    },
    {
      "constant": false,
      "inputs": [
        {
          "internalType": "address",
          "name": "cfrAddress",
          "type": "address"
        }
      ],
      "name": "addCFR",
      "outputs": [],
      "payable": false,
      "stateMutability": "nonpayable",
      "type": "function"
    },
    {
      "constant": true,
      "inputs": [],
      "name": "get_Open_Alerts",
      "outputs": [
        {
          "components": [
            {
              "internalType": "uint256",
              "name": "alertId",
              "type": "uint256"
            },
            {
              "internalType": "string",
              "name": "title",
              "type": "string"
            },
            {
              "internalType": "string",
              "name": "description",
              "type": "string"
            },
            {
              "internalType": "string",
              "name": "recipient_Address",
              "type": "string"
            },
            {
              "internalType": "enum Constants.Alert_Type",
              "name": "type_Of_Alert",
              "type": "uint8"
            },
            {
              "internalType": "address",
              "name": "responder_Address",
              "type": "address"
            },
            {
              "internalType": "enum Constants.Alert_Status",
              "name": "status",
              "type": "uint8"
            }
          ],
          "internalType": "struct Constants.Alert[]",
          "name": "",
          "type": "tuple[]"
        }
      ],
      "payable": false,
      "stateMutability": "view",
      "type": "function"
    },
    {
      "constant": true,
      "inputs": [],
      "name": "get_Closed_Alerts",
      "outputs": [
        {
          "components": [
            {
              "internalType": "uint256",
              "name": "alertId",
              "type": "uint256"
            },
            {
              "internalType": "string",
              "name": "title",
              "type": "string"
            },
            {
              "internalType": "string",
              "name": "description",
              "type": "string"
            },
            {
              "internalType": "string",
              "name": "recipient_Address",
              "type": "string"
            },
            {
              "internalType": "enum Constants.Alert_Type",
              "name": "type_Of_Alert",
              "type": "uint8"
            },
            {
              "internalType": "address",
              "name": "responder_Address",
              "type": "address"
            },
            {
              "internalType": "enum Constants.Alert_Status",
              "name": "status",
              "type": "uint8"
            }
          ],
          "internalType": "struct Constants.Alert[]",
          "name": "",
          "type": "tuple[]"
        }
      ],
      "payable": false,
      "stateMutability": "view",
      "type": "function"
    },
    {
      "constant": false,
      "inputs": [],
      "name": "respond_To_Alert",
      "outputs": [
        {
          "internalType": "uint256",
          "name": "",
          "type": "uint256"
        }
      ],
      "payable": false,
      "stateMutability": "nonpayable",
      "type": "function"
    }
  ],
  "bytecode": "0x608060405260006005553480156200001657600080fd5b50604051620012293803806200122983398181016040526200003c91908101906200014c565b826000806101000a81548173ffffffffffffffffffffffffffffffffffffffff021916908373ffffffffffffffffffffffffffffffffffffffff16021790555081600260006101000a81548173ffffffffffffffffffffffffffffffffffffffff021916908373ffffffffffffffffffffffffffffffffffffffff16021790555080600160006101000a81548173ffffffffffffffffffffffffffffffffffffffff021916908373ffffffffffffffffffffffffffffffffffffffff16021790555050505062000260565b600081519050620001188162000212565b92915050565b6000815190506200012f816200022c565b92915050565b600081519050620001468162000246565b92915050565b6000806000606084860312156200016257600080fd5b6000620001728682870162000135565b9350506020620001858682870162000107565b925050604062000198868287016200011e565b9150509250925092565b6000620001af82620001f2565b9050919050565b6000620001c382620001a2565b9050919050565b6000620001d782620001a2565b9050919050565b6000620001eb82620001a2565b9050919050565b600073ffffffffffffffffffffffffffffffffffffffff82169050919050565b6200021d81620001b6565b81146200022957600080fd5b50565b6200023781620001ca565b81146200024357600080fd5b50565b6200025181620001de565b81146200025d57600080fd5b50565b610fb980620002706000396000f3fe608060405234801561001057600080fd5b50600436106100575760003560e01c806342fa4a311461005c5780637342c1461461007a5780639d72306f14610096578063b9f4aa0a146100c6578063be0de11d146100e4575b600080fd5b610064610102565b6040516100719190610d31565b60405180910390f35b610094600480360361008f9190810190610a53565b6101ad565b005b6100b060048036036100ab9190810190610afe565b610216565b6040516100bd9190610d16565b60405180910390f35b6100ce610252565b6040516100db9190610d31565b60405180910390f35b6100ec6102fd565b6040516100f99190610d53565b60405180910390f35b60606000809054906101000a900473ffffffffffffffffffffffffffffffffffffffff1673ffffffffffffffffffffffffffffffffffffffff1663615f834a6040518163ffffffff1660e01b815260040160006040518083038186803b15801561016b57600080fd5b505afa15801561017f573d6000803e3d6000fd5b505050506040513d6000823e3d601f19601f820116820180604052506101a89190810190610a7c565b905090565b60038190806001815401808255809150509060018203906000526020600020016000909192909190916101000a81548173ffffffffffffffffffffffffffffffffffffffff021916908373ffffffffffffffffffffffffffffffffffffffff1602179055505050565b6003818154811061022357fe5b906000526020600020016000915054906101000a900473ffffffffffffffffffffffffffffffffffffffff1681565b60606000809054906101000a900473ffffffffffffffffffffffffffffffffffffffff1673ffffffffffffffffffffffffffffffffffffffff16636553a3bf6040518163ffffffff1660e01b815260040160006040518083038186803b1580156102bb57600080fd5b505afa1580156102cf573d6000803e3d6000fd5b505050506040513d6000823e3d601f19601f820116820180604052506102f89190810190610a7c565b905090565b60006103076106b4565b6000809054906101000a900473ffffffffffffffffffffffffffffffffffffffff1673ffffffffffffffffffffffffffffffffffffffff1663957908d16040518163ffffffff1660e01b8152600401600060405180830381600087803b15801561037057600080fd5b505af1158015610384573d6000803e3d6000fd5b505050506040513d6000823e3d601f19601f820116820180604052506103ad9190810190610abd565b905060008160000151111561053d5760006103c6610541565b9050600160009054906101000a900473ffffffffffffffffffffffffffffffffffffffff1673ffffffffffffffffffffffffffffffffffffffff1663ba88b0296040518163ffffffff1660e01b8152600401602060405180830381600087803b15801561043257600080fd5b505af1158015610446573d6000803e3d6000fd5b505050506040513d601f19601f8201168201806040525061046a9190810190610b27565b506000600460008373ffffffffffffffffffffffffffffffffffffffff1673ffffffffffffffffffffffffffffffffffffffff16815260200190815260200160002060006101000a81548160ff02191690831515021790555060038190806001815401808255809150509060018203906000526020600020016000909192909190916101000a81548173ffffffffffffffffffffffffffffffffffffffff021916908373ffffffffffffffffffffffffffffffffffffffff16021790555050600560008154809291906001019190505550505b5090565b600080600360008154811061055257fe5b9060005260206000200160009054906101000a900473ffffffffffffffffffffffffffffffffffffffff16905060036001600380549050038154811061059457fe5b9060005260206000200160009054906101000a900473ffffffffffffffffffffffffffffffffffffffff1660036000815481106105cd57fe5b9060005260206000200160006101000a81548173ffffffffffffffffffffffffffffffffffffffff021916908373ffffffffffffffffffffffffffffffffffffffff160217905550600380548061062057fe5b6001900381819060005260206000200160006101000a81549073ffffffffffffffffffffffffffffffffffffffff021916905590556001600460008373ffffffffffffffffffffffffffffffffffffffff1673ffffffffffffffffffffffffffffffffffffffff16815260200190815260200160002060006101000a81548160ff0219169083151502179055508091505090565b6040518060e0016040528060008152602001606081526020016060815260200160608152602001600060038111156106e857fe5b8152602001600073ffffffffffffffffffffffffffffffffffffffff1681526020016000600181111561071757fe5b81525090565b60008135905061072c81610f28565b92915050565b60008151905061074181610f28565b92915050565b600082601f83011261075857600080fd5b815161076b61076682610d9b565b610d6e565b9150818183526020840193506020810190508360005b838110156107b157815186016107978882610839565b845260208401935060208301925050600181019050610781565b5050505092915050565b6000815190506107ca81610f3f565b92915050565b6000815190506107df81610f4f565b92915050565b600082601f8301126107f657600080fd5b815161080961080482610dc3565b610d6e565b9150808252602083016020830185838301111561082557600080fd5b610830838284610eca565b50505092915050565b600060e0828403121561084b57600080fd5b61085560e0610d6e565b9050600061086584828501610a3e565b600083015250602082015167ffffffffffffffff81111561088557600080fd5b610891848285016107e5565b602083015250604082015167ffffffffffffffff8111156108b157600080fd5b6108bd848285016107e5565b604083015250606082015167ffffffffffffffff8111156108dd57600080fd5b6108e9848285016107e5565b60608301525060806108fd848285016107d0565b60808301525060a061091184828501610732565b60a08301525060c0610925848285016107bb565b60c08301525092915050565b600060e0828403121561094357600080fd5b61094d60e0610d6e565b9050600061095d84828501610a3e565b600083015250602082015167ffffffffffffffff81111561097d57600080fd5b610989848285016107e5565b602083015250604082015167ffffffffffffffff8111156109a957600080fd5b6109b5848285016107e5565b604083015250606082015167ffffffffffffffff8111156109d557600080fd5b6109e1848285016107e5565b60608301525060806109f5848285016107d0565b60808301525060a0610a0984828501610732565b60a08301525060c0610a1d848285016107bb565b60c08301525092915050565b600081359050610a3881610f5f565b92915050565b600081519050610a4d81610f5f565b92915050565b600060208284031215610a6557600080fd5b6000610a738482850161071d565b91505092915050565b600060208284031215610a8e57600080fd5b600082015167ffffffffffffffff811115610aa857600080fd5b610ab484828501610747565b91505092915050565b600060208284031215610acf57600080fd5b600082015167ffffffffffffffff811115610ae957600080fd5b610af584828501610931565b91505092915050565b600060208284031215610b1057600080fd5b6000610b1e84828501610a29565b91505092915050565b600060208284031215610b3957600080fd5b6000610b4784828501610a3e565b91505092915050565b6000610b5c8383610c4e565b905092915050565b610b6d81610e44565b82525050565b610b7c81610e44565b82525050565b6000610b8d82610dff565b610b978185610e22565b935083602082028501610ba985610def565b8060005b85811015610be55784840389528151610bc68582610b50565b9450610bd183610e15565b925060208a01995050600181019050610bad565b50829750879550505050505092915050565b610c0081610ea6565b82525050565b610c0f81610eb8565b82525050565b6000610c2082610e0a565b610c2a8185610e33565b9350610c3a818560208601610eca565b610c4381610efd565b840191505092915050565b600060e083016000830151610c666000860182610cf8565b5060208301518482036020860152610c7e8282610c15565b91505060408301518482036040860152610c988282610c15565b91505060608301518482036060860152610cb28282610c15565b9150506080830151610cc76080860182610c06565b5060a0830151610cda60a0860182610b64565b5060c0830151610ced60c0860182610bf7565b508091505092915050565b610d0181610e9c565b82525050565b610d1081610e9c565b82525050565b6000602082019050610d2b6000830184610b73565b92915050565b60006020820190508181036000830152610d4b8184610b82565b905092915050565b6000602082019050610d686000830184610d07565b92915050565b6000604051905081810181811067ffffffffffffffff82111715610d9157600080fd5b8060405250919050565b600067ffffffffffffffff821115610db257600080fd5b602082029050602081019050919050565b600067ffffffffffffffff821115610dda57600080fd5b601f19601f8301169050602081019050919050565b6000819050602082019050919050565b600081519050919050565b600081519050919050565b6000602082019050919050565b600082825260208201905092915050565b600082825260208201905092915050565b6000610e4f82610e7c565b9050919050565b6000819050610e6482610f0e565b919050565b6000819050610e7782610f1b565b919050565b600073ffffffffffffffffffffffffffffffffffffffff82169050919050565b6000819050919050565b6000610eb182610e56565b9050919050565b6000610ec382610e69565b9050919050565b60005b83811015610ee8578082015181840152602081019050610ecd565b83811115610ef7576000848401525b50505050565b6000601f19601f8301169050919050565b60028110610f1857fe5b50565b60048110610f2557fe5b50565b610f3181610e44565b8114610f3c57600080fd5b50565b60028110610f4c57600080fd5b50565b60048110610f5c57600080fd5b50565b610f6881610e9c565b8114610f7357600080fd5b5056fea365627a7a72315820729f681dba28064b8b5337d76bbaaa2dd5dd05a9bd8619f4cccdb2650e9c27026c6578706572696d656e74616cf564736f6c63430005100040",
  "source": "// SPDX-License-Identifier: GPL-3.0\r\n// pragma solidity >=0.8.0 <=0.9.0;\r\npragma solidity >=0.5.16;\r\npragma experimental ABIEncoderV2;\r\n\r\n\r\nimport \"./Constants.sol\";\r\nimport \"./Queue.sol\";\r\nimport \"./CFR.sol\";\r\n\r\ncontract Responder{\r\n\r\n    // To access dequeue of the queue. The constructor might need Address, verify it.\r\n    Queue queue;\r\n    CFR cfr;\r\n    Alerter alerter;\r\n \r\n    address[] public cfrAddresses;\r\n    mapping(address => bool) is_CFR_Responding;\r\n\r\n    constructor(Queue _address, Alerter _Alerter, CFR _cfrAddr) public{\r\n        // queue = Queue(_address);\r\n        queue = _address;\r\n        alerter = _Alerter;\r\n        cfr = _cfrAddr;\r\n    }\r\n\r\n    // Count of closed alerts. Currently has no increment since it is done in the Queue, check when to increment.\r\n    uint alertsResponded = 0;\r\n\r\n\r\n    function addCFR(address cfrAddress) public {\r\n        cfrAddresses.push(cfrAddress);\r\n    }\r\n\r\n    function get_Open_Alerts() public view returns(Constants.Alert[] memory){\r\n        return queue.list_All_OpenAlerts();\r\n    }\r\n\r\n    function get_Closed_Alerts() public view returns(Constants.Alert[] memory){\r\n        return queue.list_All_Responded_Alerts();\r\n    }\r\n\r\n    // Assuming that there is atleast 1 CFR available at all the times.\r\n    // Not checking if CFR is already responding or not. But we might need it.\r\n    function getAvailableCFR() private returns (address){\r\n        address addr = cfrAddresses[0];\r\n        cfrAddresses[0] = cfrAddresses[cfrAddresses.length-1];\r\n        cfrAddresses.pop();\r\n        is_CFR_Responding[addr] = true;\r\n        return addr;        \r\n    }\r\n\r\n    // Respond to an alert\r\n    function respond_To_Alert() public returns(uint){\r\n        Constants.Alert memory alert = queue.dequeue();\r\n        if(alert.alertId > 0)\r\n        {\r\n            address addr = getAvailableCFR();\r\n            cfr.provideInitialResponse();\r\n            is_CFR_Responding[addr] = false;\r\n            cfrAddresses.push(addr);\r\n            alertsResponded++;\r\n        }\r\n    }\r\n}",
  "sourcePath": "C:\\Users\\varunbailapudi\\Documents\\Spring 2024\\Project Implementation\\AlertManagement\\contracts\\Responder.sol",
  "compiler": {
    "name": "solc",
    "version": "0.5.16+commit.9c3226ce.Emscripten.clang"
  },
  "schemaVersion": "3.4.16",
  "updatedAt": "2024-05-15T04:51:28.830Z",
  "networkType": "ethereum",
  "devdoc": {
    "methods": {}
  },
  "userdoc": {
    "methods": {}
  }
}