{
  "contractName": "Responder",
  "abi": [
    {
      "inputs": [
        {
          "internalType": "contract Queue",
          "name": "_address",
          "type": "address"
        }
      ],
      "stateMutability": "nonpayable",
      "type": "constructor"
    },
    {
      "inputs": [],
      "name": "get_Open_Alerts",
      "outputs": [
        {
          "components": [
            {
              "internalType": "uint256",
              "name": "alertId",
              "type": "uint256"
            },
            {
              "internalType": "string",
              "name": "title",
              "type": "string"
            },
            {
              "internalType": "string",
              "name": "description",
              "type": "string"
            },
            {
              "internalType": "string",
              "name": "recipient_Address",
              "type": "string"
            },
            {
              "internalType": "enum Alert_Type",
              "name": "type_Of_Alert",
              "type": "uint8"
            },
            {
              "internalType": "address",
              "name": "responder_Address",
              "type": "address"
            },
            {
              "internalType": "enum Alert_Status",
              "name": "status",
              "type": "uint8"
            }
          ],
          "internalType": "struct Alert[]",
          "name": "",
          "type": "tuple[]"
        }
      ],
      "stateMutability": "view",
      "type": "function"
    },
    {
      "inputs": [],
      "name": "get_Closed_Alerts",
      "outputs": [
        {
          "components": [
            {
              "internalType": "uint256",
              "name": "alertId",
              "type": "uint256"
            },
            {
              "internalType": "string",
              "name": "title",
              "type": "string"
            },
            {
              "internalType": "string",
              "name": "description",
              "type": "string"
            },
            {
              "internalType": "string",
              "name": "recipient_Address",
              "type": "string"
            },
            {
              "internalType": "enum Alert_Type",
              "name": "type_Of_Alert",
              "type": "uint8"
            },
            {
              "internalType": "address",
              "name": "responder_Address",
              "type": "address"
            },
            {
              "internalType": "enum Alert_Status",
              "name": "status",
              "type": "uint8"
            }
          ],
          "internalType": "struct Alert[]",
          "name": "",
          "type": "tuple[]"
        }
      ],
      "stateMutability": "view",
      "type": "function"
    },
    {
      "inputs": [],
      "name": "respond_To_Alert",
      "outputs": [],
      "stateMutability": "nonpayable",
      "type": "function"
    }
  ],
  "bytecode": "0x60806040525f600155348015610013575f80fd5b50604051610ae2380380610ae2833981810160405281019061003591906100e9565b805f806101000a81548173ffffffffffffffffffffffffffffffffffffffff021916908373ffffffffffffffffffffffffffffffffffffffff16021790555050610114565b5f80fd5b5f73ffffffffffffffffffffffffffffffffffffffff82169050919050565b5f6100a78261007e565b9050919050565b5f6100b88261009d565b9050919050565b6100c8816100ae565b81146100d2575f80fd5b50565b5f815190506100e3816100bf565b92915050565b5f602082840312156100fe576100fd61007a565b5b5f61010b848285016100d5565b91505092915050565b6109c1806101215f395ff3fe608060405234801561000f575f80fd5b506004361061003f575f3560e01c806342fa4a3114610043578063b9f4aa0a14610061578063be0de11d1461007f575b5f80fd5b61004b610089565b6040516100589190610541565b60405180910390f35b61006961011f565b6040516100769190610541565b60405180910390f35b6100876101b5565b005b60605f8054906101000a900473ffffffffffffffffffffffffffffffffffffffff1673ffffffffffffffffffffffffffffffffffffffff1663615f834a6040518163ffffffff1660e01b81526004015f60405180830381865afa1580156100f2573d5f803e3d5ffd5b505050506040513d5f823e3d601f19601f8201168201806040525081019061011a9190610919565b905090565b60605f8054906101000a900473ffffffffffffffffffffffffffffffffffffffff1673ffffffffffffffffffffffffffffffffffffffff16636553a3bf6040518163ffffffff1660e01b81526004015f60405180830381865afa158015610188573d5f803e3d5ffd5b505050506040513d5f823e3d601f19601f820116820180604052508101906101b09190610919565b905090565b5f8054906101000a900473ffffffffffffffffffffffffffffffffffffffff1673ffffffffffffffffffffffffffffffffffffffff1663957908d16040518163ffffffff1660e01b81526004016020604051808303815f875af115801561021e573d5f803e3d5ffd5b505050506040513d601f19601f820116820180604052508101906102429190610960565b50565b5f81519050919050565b5f82825260208201905092915050565b5f819050602082019050919050565b5f819050919050565b6102808161026e565b82525050565b5f81519050919050565b5f82825260208201905092915050565b5f5b838110156102bd5780820151818401526020810190506102a2565b5f8484015250505050565b5f601f19601f8301169050919050565b5f6102e282610286565b6102ec8185610290565b93506102fc8185602086016102a0565b610305816102c8565b840191505092915050565b7f4e487b71000000000000000000000000000000000000000000000000000000005f52602160045260245ffd5b6004811061034e5761034d610310565b5b50565b5f81905061035e8261033d565b919050565b5f61036d82610351565b9050919050565b61037d81610363565b82525050565b5f73ffffffffffffffffffffffffffffffffffffffff82169050919050565b5f6103ac82610383565b9050919050565b6103bc816103a2565b82525050565b600281106103d3576103d2610310565b5b50565b5f8190506103e3826103c2565b919050565b5f6103f2826103d6565b9050919050565b610402816103e8565b82525050565b5f60e083015f83015161041d5f860182610277565b506020830151848203602086015261043582826102d8565b9150506040830151848203604086015261044f82826102d8565b9150506060830151848203606086015261046982826102d8565b915050608083015161047e6080860182610374565b5060a083015161049160a08601826103b3565b5060c08301516104a460c08601826103f9565b508091505092915050565b5f6104ba8383610408565b905092915050565b5f602082019050919050565b5f6104d882610245565b6104e2818561024f565b9350836020820285016104f48561025f565b805f5b8581101561052f578484038952815161051085826104af565b945061051b836104c2565b925060208a019950506001810190506104f7565b50829750879550505050505092915050565b5f6020820190508181035f83015261055981846104ce565b905092915050565b5f604051905090565b5f80fd5b5f80fd5b5f80fd5b7f4e487b71000000000000000000000000000000000000000000000000000000005f52604160045260245ffd5b6105ac826102c8565b810181811067ffffffffffffffff821117156105cb576105ca610576565b5b80604052505050565b5f6105dd610561565b90506105e982826105a3565b919050565b5f67ffffffffffffffff82111561060857610607610576565b5b602082029050602081019050919050565b5f80fd5b5f80fd5b5f80fd5b61062e8161026e565b8114610638575f80fd5b50565b5f8151905061064981610625565b92915050565b5f80fd5b5f67ffffffffffffffff82111561066d5761066c610576565b5b610676826102c8565b9050602081019050919050565b5f61069561069084610653565b6105d4565b9050828152602081018484840111156106b1576106b061064f565b5b6106bc8482856102a0565b509392505050565b5f82601f8301126106d8576106d7610572565b5b81516106e8848260208601610683565b91505092915050565b600481106106fd575f80fd5b50565b5f8151905061070e816106f1565b92915050565b61071d816103a2565b8114610727575f80fd5b50565b5f8151905061073881610714565b92915050565b6002811061074a575f80fd5b50565b5f8151905061075b8161073e565b92915050565b5f60e082840312156107765761077561061d565b5b61078060e06105d4565b90505f61078f8482850161063b565b5f83015250602082015167ffffffffffffffff8111156107b2576107b1610621565b5b6107be848285016106c4565b602083015250604082015167ffffffffffffffff8111156107e2576107e1610621565b5b6107ee848285016106c4565b604083015250606082015167ffffffffffffffff81111561081257610811610621565b5b61081e848285016106c4565b606083015250608061083284828501610700565b60808301525060a06108468482850161072a565b60a08301525060c061085a8482850161074d565b60c08301525092915050565b5f610878610873846105ee565b6105d4565b9050808382526020820190506020840283018581111561089b5761089a610619565b5b835b818110156108e257805167ffffffffffffffff8111156108c0576108bf610572565b5b8086016108cd8982610761565b8552602085019450505060208101905061089d565b5050509392505050565b5f82601f830112610900576108ff610572565b5b8151610910848260208601610866565b91505092915050565b5f6020828403121561092e5761092d61056a565b5b5f82015167ffffffffffffffff81111561094b5761094a61056e565b5b610957848285016108ec565b91505092915050565b5f602082840312156109755761097461056a565b5b5f6109828482850161063b565b9150509291505056fea264697066735822122082139595d16f56244b91c3152f4d1472a741d33028bb52a6d5ae8bf66da1397d64736f6c63430008150033",
  "immutableReferences": {},
  "source": "// SPDX-License-Identifier: GPL-3.0\r\n// pragma solidity >=0.8.0 <=0.9.0;\r\npragma solidity >=0.5.16;\r\n\r\nimport \"./Constants.sol\";\r\nimport \"./Queue.sol\";\r\n\r\ncontract Responder{\r\n\r\n    // To access dequeue of the queue. The constructor might need Address, verify it.\r\n    Queue queue;\r\n    constructor(Queue _address){\r\n        // queue = Queue(_address);\r\n        queue = _address;\r\n    }\r\n\r\n    // Count of closed alerts. Currently has no increment since it is done in the Queue, check when to increment.\r\n    uint alertsResponded = 0;\r\n    \r\n\r\n    function get_Open_Alerts() public view returns(Alert[] memory){\r\n        return queue.list_All_OpenAlerts();\r\n    }\r\n\r\n    function get_Closed_Alerts() public view returns(Alert[] memory){\r\n        return queue.list_All_Responded_Alerts();\r\n    }\r\n\r\n    // Respond to an alert\r\n    function respond_To_Alert() public{\r\n        queue.dequeue();\r\n    }\r\n\r\n\r\n}",
  "sourcePath": "C:\\Users\\varunbailapudi\\Documents\\Spring 2024\\Project Implementation\\AlertManagement\\contracts\\Responder.sol",
  "compiler": {
    "name": "solc",
    "version": "0.8.21+commit.d9974bed.Emscripten.clang"
  },
  "schemaVersion": "3.4.16",
  "updatedAt": "2024-05-05T23:54:19.046Z",
  "devdoc": {
    "kind": "dev",
    "methods": {},
    "version": 1
  },
  "userdoc": {
    "kind": "user",
    "methods": {},
    "version": 1
  }
}