{
  "contractName": "Responder",
  "abi": [
    {
      "inputs": [
        {
          "internalType": "address",
          "name": "_address",
          "type": "address"
        }
      ],
      "stateMutability": "nonpayable",
      "type": "constructor"
    },
    {
      "inputs": [],
      "name": "management",
      "outputs": [
        {
          "internalType": "contract AlertManagement",
          "name": "",
          "type": "address"
        }
      ],
      "stateMutability": "view",
      "type": "function"
    }
  ],
  "bytecode": "0x608060405234801561000f575f80fd5b5060405161022e38038061022e833981810160405281019061003191906100d4565b805f806101000a81548173ffffffffffffffffffffffffffffffffffffffff021916908373ffffffffffffffffffffffffffffffffffffffff160217905550506100ff565b5f80fd5b5f73ffffffffffffffffffffffffffffffffffffffff82169050919050565b5f6100a38261007a565b9050919050565b6100b381610099565b81146100bd575f80fd5b50565b5f815190506100ce816100aa565b92915050565b5f602082840312156100e9576100e8610076565b5b5f6100f6848285016100c0565b91505092915050565b6101228061010c5f395ff3fe6080604052348015600e575f80fd5b50600436106026575f3560e01c806388a8d60214602a575b5f80fd5b60306044565b604051603b919060d5565b60405180910390f35b5f8054906101000a900473ffffffffffffffffffffffffffffffffffffffff1681565b5f73ffffffffffffffffffffffffffffffffffffffff82169050919050565b5f819050919050565b5f60a3609f609b846067565b6086565b6067565b9050919050565b5f60b282608f565b9050919050565b5f60c18260aa565b9050919050565b60cf8160b9565b82525050565b5f60208201905060e65f83018460c8565b9291505056fea2646970667358221220427e6e14a6d7a41901e7b079b7fd192ffdace19e0e2e802f2df6ded6fe01b9d264736f6c63430008150033",
  "immutableReferences": {},
  "source": "// SPDX-License-Identifier: GPL-3.0\r\n// pragma solidity >=0.8.0 <=0.9.0;\r\npragma solidity >=0.5.16;\r\n\r\nimport \"./AlertManagement.sol\";\r\n\r\ncontract Responder{\r\n    \r\n    //  Initializing the AlertManagement Smart Contract to access the open alerts for responding\r\n    AlertManagement public management;\r\n\r\n    // Constructor to initialize the AlertManagement object\r\n    constructor(address _address){\r\n        management = AlertManagement(_address);\r\n    }\r\n    \r\n\r\n    //  Array to store the Alert ID's of the responder closed alerts\r\n    // AlertManagement.Alert[] public respondedAlerts;\r\n\r\n    function get_Open_Alerts() private view returns(AlertManagement.Alert[] memory){\r\n        return management.getAlerts();\r\n    }\r\n}",
  "sourcePath": "C:\\Users\\varunbailapudi\\Documents\\Spring 2024\\Project Implementation\\AlertManagement\\contracts\\Responder.sol",
  "compiler": {
    "name": "solc",
    "version": "0.8.21+commit.d9974bed.Emscripten.clang"
  },
  "schemaVersion": "3.4.16",
  "updatedAt": "2024-05-05T07:32:33.193Z",
  "devdoc": {
    "kind": "dev",
    "methods": {},
    "version": 1
  },
  "userdoc": {
    "kind": "user",
    "methods": {},
    "version": 1
  }
}