{
  "contractName": "Responder",
  "abi": [
    {
      "inputs": [
        {
          "internalType": "contract Queue",
          "name": "_address",
          "type": "address"
        }
      ],
      "payable": false,
      "stateMutability": "nonpayable",
      "type": "constructor"
    },
    {
      "constant": true,
      "inputs": [],
      "name": "get_Open_Alerts",
      "outputs": [
        {
          "components": [
            {
              "internalType": "uint256",
              "name": "alertId",
              "type": "uint256"
            },
            {
              "internalType": "string",
              "name": "title",
              "type": "string"
            },
            {
              "internalType": "string",
              "name": "description",
              "type": "string"
            },
            {
              "internalType": "string",
              "name": "recipient_Address",
              "type": "string"
            },
            {
              "internalType": "enum Constants.Alert_Type",
              "name": "type_Of_Alert",
              "type": "uint8"
            },
            {
              "internalType": "address",
              "name": "responder_Address",
              "type": "address"
            },
            {
              "internalType": "enum Constants.Alert_Status",
              "name": "status",
              "type": "uint8"
            }
          ],
          "internalType": "struct Constants.Alert[]",
          "name": "",
          "type": "tuple[]"
        }
      ],
      "payable": false,
      "stateMutability": "view",
      "type": "function"
    },
    {
      "constant": true,
      "inputs": [],
      "name": "get_Closed_Alerts",
      "outputs": [
        {
          "components": [
            {
              "internalType": "uint256",
              "name": "alertId",
              "type": "uint256"
            },
            {
              "internalType": "string",
              "name": "title",
              "type": "string"
            },
            {
              "internalType": "string",
              "name": "description",
              "type": "string"
            },
            {
              "internalType": "string",
              "name": "recipient_Address",
              "type": "string"
            },
            {
              "internalType": "enum Constants.Alert_Type",
              "name": "type_Of_Alert",
              "type": "uint8"
            },
            {
              "internalType": "address",
              "name": "responder_Address",
              "type": "address"
            },
            {
              "internalType": "enum Constants.Alert_Status",
              "name": "status",
              "type": "uint8"
            }
          ],
          "internalType": "struct Constants.Alert[]",
          "name": "",
          "type": "tuple[]"
        }
      ],
      "payable": false,
      "stateMutability": "view",
      "type": "function"
    },
    {
      "constant": false,
      "inputs": [],
      "name": "respond_To_Alert",
      "outputs": [
        {
          "internalType": "uint256",
          "name": "",
          "type": "uint256"
        }
      ],
      "payable": false,
      "stateMutability": "nonpayable",
      "type": "function"
    }
  ],
  "bytecode": "0x6080604052600060015534801561001557600080fd5b50604051610aa1380380610aa183398181016040526100379190810190610092565b806000806101000a81548173ffffffffffffffffffffffffffffffffffffffff021916908373ffffffffffffffffffffffffffffffffffffffff16021790555050610116565b60008151905061008c816100ff565b92915050565b6000602082840312156100a457600080fd5b60006100b28482850161007d565b91505092915050565b60006100c6826100df565b9050919050565b60006100d8826100bb565b9050919050565b600073ffffffffffffffffffffffffffffffffffffffff82169050919050565b610108816100cd565b811461011357600080fd5b50565b61097c806101256000396000f3fe608060405234801561001057600080fd5b50600436106100415760003560e01c806342fa4a3114610046578063b9f4aa0a14610064578063be0de11d14610082575b600080fd5b61004e6100a0565b60405161005b91906106f4565b60405180910390f35b61006c61014b565b60405161007991906106f4565b60405180910390f35b61008a6101f6565b6040516100979190610716565b60405180910390f35b60606000809054906101000a900473ffffffffffffffffffffffffffffffffffffffff1673ffffffffffffffffffffffffffffffffffffffff1663615f834a6040518163ffffffff1660e01b815260040160006040518083038186803b15801561010957600080fd5b505afa15801561011d573d6000803e3d6000fd5b505050506040513d6000823e3d601f19601f8201168201806040525061014691908101906104d3565b905090565b60606000809054906101000a900473ffffffffffffffffffffffffffffffffffffffff1673ffffffffffffffffffffffffffffffffffffffff16636553a3bf6040518163ffffffff1660e01b815260040160006040518083038186803b1580156101b457600080fd5b505afa1580156101c8573d6000803e3d6000fd5b505050506040513d6000823e3d601f19601f820116820180604052506101f191908101906104d3565b905090565b6000806000809054906101000a900473ffffffffffffffffffffffffffffffffffffffff1673ffffffffffffffffffffffffffffffffffffffff1663957908d16040518163ffffffff1660e01b8152600401602060405180830381600087803b15801561026257600080fd5b505af1158015610276573d6000803e3d6000fd5b505050506040513d601f19601f8201168201806040525061029a9190810190610514565b905060008111156102b8576001600081548092919060010191905055505b8091505090565b6000815190506102ce816108eb565b92915050565b600082601f8301126102e557600080fd5b81516102f86102f38261075e565b610731565b9150818183526020840193506020810190508360005b8381101561033e578151860161032488826103c6565b84526020840193506020830192505060018101905061030e565b5050505092915050565b60008151905061035781610902565b92915050565b60008151905061036c81610912565b92915050565b600082601f83011261038357600080fd5b815161039661039182610786565b610731565b915080825260208301602083018583830111156103b257600080fd5b6103bd83828461088d565b50505092915050565b600060e082840312156103d857600080fd5b6103e260e0610731565b905060006103f2848285016104be565b600083015250602082015167ffffffffffffffff81111561041257600080fd5b61041e84828501610372565b602083015250604082015167ffffffffffffffff81111561043e57600080fd5b61044a84828501610372565b604083015250606082015167ffffffffffffffff81111561046a57600080fd5b61047684828501610372565b606083015250608061048a8482850161035d565b60808301525060a061049e848285016102bf565b60a08301525060c06104b284828501610348565b60c08301525092915050565b6000815190506104cd81610922565b92915050565b6000602082840312156104e557600080fd5b600082015167ffffffffffffffff8111156104ff57600080fd5b61050b848285016102d4565b91505092915050565b60006020828403121561052657600080fd5b6000610534848285016104be565b91505092915050565b6000610549838361062c565b905092915050565b61055a81610807565b82525050565b600061056b826107c2565b61057581856107e5565b935083602082028501610587856107b2565b8060005b858110156105c357848403895281516105a4858261053d565b94506105af836107d8565b925060208a0199505060018101905061058b565b50829750879550505050505092915050565b6105de81610869565b82525050565b6105ed8161087b565b82525050565b60006105fe826107cd565b61060881856107f6565b935061061881856020860161088d565b610621816108c0565b840191505092915050565b600060e08301600083015161064460008601826106d6565b506020830151848203602086015261065c82826105f3565b9150506040830151848203604086015261067682826105f3565b9150506060830151848203606086015261069082826105f3565b91505060808301516106a560808601826105e4565b5060a08301516106b860a0860182610551565b5060c08301516106cb60c08601826105d5565b508091505092915050565b6106df8161085f565b82525050565b6106ee8161085f565b82525050565b6000602082019050818103600083015261070e8184610560565b905092915050565b600060208201905061072b60008301846106e5565b92915050565b6000604051905081810181811067ffffffffffffffff8211171561075457600080fd5b8060405250919050565b600067ffffffffffffffff82111561077557600080fd5b602082029050602081019050919050565b600067ffffffffffffffff82111561079d57600080fd5b601f19601f8301169050602081019050919050565b6000819050602082019050919050565b600081519050919050565b600081519050919050565b6000602082019050919050565b600082825260208201905092915050565b600082825260208201905092915050565b60006108128261083f565b9050919050565b6000819050610827826108d1565b919050565b600081905061083a826108de565b919050565b600073ffffffffffffffffffffffffffffffffffffffff82169050919050565b6000819050919050565b600061087482610819565b9050919050565b60006108868261082c565b9050919050565b60005b838110156108ab578082015181840152602081019050610890565b838111156108ba576000848401525b50505050565b6000601f19601f8301169050919050565b600281106108db57fe5b50565b600481106108e857fe5b50565b6108f481610807565b81146108ff57600080fd5b50565b6002811061090f57600080fd5b50565b6004811061091f57600080fd5b50565b61092b8161085f565b811461093657600080fd5b5056fea365627a7a72315820c697797764d40f413f9bf3c276548de61bd4252433acbdd09336802fb59973dd6c6578706572696d656e74616cf564736f6c63430005100040",
  "source": "// SPDX-License-Identifier: GPL-3.0\r\n// pragma solidity >=0.8.0 <=0.9.0;\r\npragma solidity >=0.5.16;\r\npragma experimental ABIEncoderV2;\r\n\r\n\r\nimport \"./Constants.sol\";\r\nimport \"./Queue.sol\";\r\n\r\ncontract Responder{\r\n\r\n    // To access dequeue of the queue. The constructor might need Address, verify it.\r\n    Queue queue;\r\n    constructor(Queue _address) public{\r\n        // queue = Queue(_address);\r\n        queue = _address;\r\n    }\r\n\r\n    // Count of closed alerts. Currently has no increment since it is done in the Queue, check when to increment.\r\n    uint alertsResponded = 0;\r\n    \r\n\r\n    function get_Open_Alerts() public view returns(Constants.Alert[] memory){\r\n        return queue.list_All_OpenAlerts();\r\n    }\r\n\r\n    function get_Closed_Alerts() public view returns(Constants.Alert[] memory){\r\n        return queue.list_All_Responded_Alerts();\r\n    }\r\n\r\n    // Respond to an alert\r\n    function respond_To_Alert() public returns(uint){\r\n        uint returnedIndex = queue.dequeue();\r\n        if(returnedIndex > 0)\r\n            alertsResponded++;\r\n        return returnedIndex;\r\n    }\r\n}",
  "sourcePath": "C:\\Users\\varunbailapudi\\Documents\\Spring 2024\\Project Implementation\\AlertManagement\\contracts\\Responder.sol",
  "compiler": {
    "name": "solc",
    "version": "0.5.16+commit.9c3226ce.Emscripten.clang"
  },
  "schemaVersion": "3.4.16",
  "updatedAt": "2024-05-09T16:41:02.874Z",
  "networkType": "ethereum",
  "devdoc": {
    "methods": {}
  },
  "userdoc": {
    "methods": {}
  }
}